:020000040800F2
:1000000000000220893300084D1400085314000832
:10001000591400085F14000865140008000000006F
:100020000000000000000000000000006B14000849
:1000300079140008000000008714000895140008D7
:10004000D9330008D9330008D9330008D933000860
:10005000D9330008D9330008A1140008D9330008A7
:10006000D9330008D9330008D9330008D933000840
:10007000D9330008D9330008D9330008D933000830
:10008000D9330008D9330008B1140008D933000867
:10009000D9330008D9330008D9330008D933000810
:1000A000D9330008D9330008D9330008D933000800
:1000B000D9330008D9330008D9330008D9330008F0
:1000C000D9330008D9330008D9330008D9330008E0
:1000D000D9330008D9330008D9330008D9330008D0
:1000E000D9330008D9330008D9330008D9330008C0
:1000F000D9330008D9330008D9330008D9330008B0
:10010000D9330008D9330008D9330008D93300089F
:10011000D9330008D9330008D9330008D93300088F
:10012000D9330008D9330008D9330008D93300087F
:10013000D9330008D9330008D9330008D93300086F
:10014000D9330008D9330008D9330008D93300085F
:10015000D9330008D9330008D9330008D93300084F
:10016000D9330008D9330008D9330008D93300083F
:10017000D9330008D9330008D93300080000000043
:08018000D9330008D93300084F
:1001900010B5054C237833B9044B13B10448AFF3C1
:1001A00000800123237010BDFC010020000000002E
:1001B0000055000808B5034B1BB103490348AFF3D2
:1001C000008008BD0000000000020020005500086B
:1001D000034613F8012B002AFBD1181A0138704787
:1001E00001F0FF01102A2BDB10F0070F08D010F8E8
:1001F000013B013A8B422DD010F0070F42B3F6D1EC
:10020000F0B441EA012141EA014122F007047FF004
:1002100000070023F0E80256083C85EA010586EA5B
:10022000010685FA47F5A3FA87F586FA47F6A5FA97
:1002300087F68EB9EED1F0BC01F0FF0102F00702A3
:1002400032B110F8013B013A83EA010313B1F8D14E
:100250000020704701387047002D06BF354603382F
:10026000073815F0010F07D1013015F4807F02BF68
:10027000013015F4C03F0130F0BC0138704700BFB9
:1002800081F0004102E000BF83F0004330B54FEA47
:1002900041044FEA430594EA050F08BF90EA020FB4
:1002A0001FBF54EA000C55EA020C7FEA645C7FEA47
:1002B000655C00F0E2804FEA5454D4EB5555B8BF6A
:1002C0006D420CDD2C4480EA020281EA030382EADB
:1002D000000083EA010180EA020281EA0303362D6D
:1002E00088BF30BD11F0004F4FEA01314FF4801C40
:1002F0004CEA113102D0404261EB410113F0004F52
:100300004FEA03334CEA133302D0524263EB430308
:1003100094EA050F00F0A780A4F10104D5F1200EA6
:100320000DDB02FA0EFC22FA05F2801841F1000101
:1003300003FA0EF2801843FA05F359410EE0A5F1D5
:1003400020050EF1200E012A03FA0EFC28BF4CF006
:10035000020C43FA05F3C01851EBE37101F00045BC
:1003600007D54FF0000EDCF1000C7EEB00006EEBC9
:100370000101B1F5801F1BD3B1F5001F0CD3490853
:100380005FEA30004FEA3C0C04F101044FEA4452AA
:1003900012F5800F80F09A80BCF1004F08BF5FEA31
:1003A000500C50F1000041EB045141EA050130BD11
:1003B0005FEA4C0C404141EB010111F4801FA4F1B4
:1003C0000104E9D191F0000F04BF01460020B1FA09
:1003D00081F308BF2033A3F10B03B3F120020CDA41
:1003E0000C3208DD02F1140CC2F10C0201FA0CF01F
:1003F00021FA02F10CE002F11402D8BFC2F1200C84
:1004000001FA02F120FA0CFCDCBF41EA0C01904039
:10041000E41AA2BF01EB0451294330BD6FEA040482
:100420001F3C1CDA0C340EDC04F11404C4F120026D
:1004300020FA04F001FA02F340EA030021FA04F37F
:1004400045EA030130BDC4F10C04C4F1200220FAD6
:1004500002F001FA04F340EA0300294630BD21FA14
:1004600004F0294630BD94F0000F83F4801306BFDA
:1004700081F480110134013D4EE77FEA645C18BFCE
:100480007FEA655C29D094EA050F08BF90EA020F65
:1004900005D054EA000C04BF1946104630BD91EA5D
:1004A000030F1EBF0021002030BD5FEA545C05D160
:1004B0004000494128BF41F0004130BD14F580049F
:1004C0003CBF01F5801130BD01F0004545F0FE4113
:1004D00041F470014FF0000030BD7FEA645C1ABF48
:1004E000194610467FEA655C1CBF0B46024650EA7F
:1004F000013406BF52EA033591EA030F41F40021AB
:1005000030BD00BF90F0000F04BF0021704730B530
:100510004FF4806404F132044FF000054FF0000105
:1005200050E700BF90F0000F04BF0021704730B5C6
:100530004FF4806404F1320410F0004548BF40429B
:100540004FF000013EE700BF42004FEAE2014FEAF0
:1005500031014FEA02701FBF12F07F4393F07F4FCB
:1005600081F06051704792F0000F14BF93F07F4FFD
:10057000704730B54FF4607401F0004521F0004140
:1005800020E700BF50EA010208BF704730B54FF0C6
:1005900000050AE050EA010208BF704730B511F0CB
:1005A000004502D5404261EB41014FF4806404F103
:1005B00032045FEA915C3FF4DCAE4FF003025FEA85
:1005C000DC0C18BF03325FEADC0C18BF033202EB0D
:1005D000DC02C2F1200300FA03FC20FA02F001FA67
:1005E00003FE40EA0E0021FA02F11444C1E600BF06
:1005F00070B54FF0FF0C4CF4E06C1CEA11541DBFB9
:100600001CEA135594EA0C0F95EA0C0F00F0DEF883
:100610002C4481EA030621EA4C5123EA4C5350EA68
:10062000013518BF52EA033541F4801143F48013B9
:1006300038D0A0FB02CE4FF00005E1FB02E506F04A
:100640000042E0FB03E54FF00006E1FB03569CF09F
:10065000000F18BF4EF0010EA4F1FF04B6F5007FA5
:1006600064F5407404D25FEA4E0E6D4146EB060617
:1006700042EAC62141EA55514FEAC52040EA5E50A0
:100680004FEACE2EB4F1FD0C88BFBCF5E06F1ED84A
:10069000BEF1004F08BF5FEA500E50F1000041EB81
:1006A000045170BD06F0004646EA010140EA02002E
:1006B00081EA0301B4EB5C04C2BFD4EB0C0541EA50
:1006C000045170BD41F480114FF0000E013C00F365
:1006D000AB8014F1360FDEBF002001F0004170BD89
:1006E000C4F10004203C35DA0C341BDC04F11404A2
:1006F000C4F1200500FA05F320FA04F001FA05F22E
:1007000040EA020001F0004221F0004110EBD370FA
:1007100021FA04F642EB06015EEA430E08BF20EA26
:10072000D37070BDC4F10C04C4F1200500FA04F3C9
:1007300020FA05F001FA04F240EA020001F000415B
:1007400010EBD37041F100015EEA430E08BF20EACE
:10075000D37070BDC4F1200500FA05F24EEA020E16
:1007600020FA04F301FA05F243EA020321FA04F045
:1007700001F0004121FA04F220EA020000EBD370FC
:100780005EEA430E08BF20EAD37070BD94F0000FFC
:100790000FD101F00046400041EB010111F4801F30
:1007A00008BF013CF7D041EA060195F0000F18BFE1
:1007B000704703F00046520043EB030313F4801F1D
:1007C00008BF013DF7D043EA0603704794EA0C0FD7
:1007D0000CEA135518BF95EA0C0F0CD050EA4106ED
:1007E00018BF52EA4306D1D181EA030101F000416A
:1007F0004FF0000070BD50EA410606BF1046194692
:1008000052EA430619D094EA0C0F02D150EA01369D
:1008100013D195EA0C0F05D152EA03361CBF1046DE
:1008200019460AD181EA030101F0004141F0FE417D
:1008300041F470014FF0000070BD41F0FE4141F401
:10084000780170BD70B54FF0FF0C4CF4E06C1CEA01
:1008500011541DBF1CEA135594EA0C0F95EA0C0FB6
:1008600000F0A7F8A4EB050481EA030E52EA033571
:100870004FEA013100F088804FEA03334FF0805592
:1008800045EA131343EA12634FEA022245EA1115BF
:1008900045EA10654FEA00260EF000419D4208BF70
:1008A000964244F1FD0404F5407402D25B084FEA1D
:1008B0003202B61A65EB03055B084FEA32024FF4C9
:1008C00080104FF4002CB6EB020E75EB030E22BF26
:1008D000B61A754640EA0C005B084FEA3202B6EBE6
:1008E000020E75EB030E22BFB61A754640EA5C0095
:1008F0005B084FEA3202B6EB020E75EB030E22BF25
:10090000B61A754640EA9C005B084FEA3202B6EB25
:10091000020E75EB030E22BFB61A754640EADC00E4
:1009200055EA060E18D04FEA051545EA16754FEA46
:1009300006164FEAC30343EA52734FEAC2025FEA64
:100940001C1CC0D111F4801F0BD141EA00014FF0F3
:1009500000004FF0004CB6E711F4801F04BF0143C4
:100960000020B4F1FD0C88BFBCF5E06F3FF6AFAEE0
:10097000B5EB030C04BFB6EB020C5FEA500C50F170
:10098000000041EB045170BD0EF0004E4EEA1131F3
:1009900014EB5C04C2BFD4EB0C0541EA045170BDFA
:1009A00041F480114FF0000E013C90E645EA060E3E
:1009B0008DE60CEA135594EA0C0F08BF95EA0C0F6C
:1009C0003FF43BAF94EA0C0F0AD150EA01347FF4B4
:1009D00034AF95EA0C0F7FF425AF104619462CE78B
:1009E00095EA0C0F06D152EA03353FF4FDAE1046EE
:1009F000194622E750EA410618BF52EA43067FF43F
:100A0000C5AE50EA41047FF40DAF52EA43057FF4CE
:100A1000EBAE12E74FF0FF3C06E000BF4FF0010CD9
:100A200002E000BF4FF0010C4DF804CD4FEA410C3D
:100A30007FEA6C5C4FEA430C18BF7FEA6C5C1BD00A
:100A400001B050EA410C0CBF52EA430C91EA030F8B
:100A500002BF90EA020F0020704710F1000F91EAE8
:100A6000030F58BF994208BF90422CBFD8176FEAB6
:100A7000E37040F0010070474FEA410C7FEA6C5C84
:100A800002D150EA013C07D14FEA430C7FEA6C5C8B
:100A9000D6D152EA033CD3D05DF8040B704700BFB7
:100AA0008446104662468C461946634600E000BF05
:100AB00001B5FFF7B7FF002848BF10F1000F01BDD7
:100AC0004DF808EDFFF7F4FF0CBF012000205DF8A2
:100AD00008FB00BF4DF808EDFFF7EAFF34BF012027
:100AE00000205DF808FB00BF4DF808EDFFF7E0FFC0
:100AF00094BF012000205DF808FB00BF4DF808ED11
:100B0000FFF7CEFF94BF012000205DF808FB00BF77
:100B10004DF808EDFFF7C4FF34BF012000205DF859
:100B200008FB00BF4FEA410C7FEA6C5C02D150EA3F
:100B3000013C0AD14FEA430C7FEA6C5C02D152EAD5
:100B4000033C02D14FF0000070474FF001007047A6
:100B50004FEA410212F5001215D211D56FF47873E5
:100B6000B3EB625212D94FEAC12343F0004343EA88
:100B7000505311F0004F23FA02F018BF4042704763
:100B80004FF00000704750EA013005D111F00040ED
:100B900008BF6FF0004070474FF00000704700BF83
:100BA00053B94AB9002908BF00281CBF4FF0FF31D4
:100BB0004FF0FF3000F07AB9ADF1080C6DE904CECA
:100BC00000F006F8DDF804E0DDE9022304B0704728
:100BD0002DE9F0478C460D460446089E002B51D166
:100BE0008A4217466DD9B2FA82FEBEF1000F0BD0D1
:100BF000CEF1200C01FA0EF520FA0CFC02FA0EF7E9
:100C00004CEA050C00FA0EF44FEA174A250CBCFB1F
:100C1000FAF81FFA87F90AFB18CC45EA0C4508FBDD
:100C200009F3AB420AD9ED1908F1FF3280F02381B4
:100C3000AB4240F22081A8F102083D44ED1AA4B273
:100C4000B5FBFAF00AFB105544EA054400FB09F92C
:100C5000A14509D9E41900F1FF3380F00A81A145CB
:100C600040F2078102383C44A4EB090440EA084002
:100C70000021002E61D024FA0EF40023346073604A
:100C8000BDE8F0878B4207D9002E54D0002186E8BA
:100C900021000846BDE8F087B3FA83F1002940F04F
:100CA0008E80AB4202D3824200F2FA80841A65EB56
:100CB00003050120AC46002E3FD086E81010BDE8A9
:100CC000F08712B90127B7FBF2F7B7FA87FEBEF13A
:100CD000000F34D1EB1B3A0C1FFA87FC0121B3FB48
:100CE000F2F8250C02FB183345EA03450CFB08F328
:100CF000AB4207D9ED1908F1FF3002D2AB4200F246
:100D0000D1808046ED1AA3B2B5FBF2F002FB10557C
:100D100043EA05440CFB00FCA44507D9E41900F1A3
:100D2000FF3302D2A44500F2B8801846A4EB0C04AD
:100D300040EA08409DE731463046BDE8F087CEF1F5
:100D4000200405FA0EF307FA0EF720FA04F83A0C1D
:100D500025FA04F448EA0308B4FBF2F14FEA184517
:100D600002FB11441FFA87FC45EA044501FB0CF322
:100D7000AB4200FA0EF409D9ED1901F1FF3080F011
:100D80008A80AB4240F2878002393D44EB1A1FFA59
:100D900088F5B3FBF2F002FB103345EA034500FB94
:100DA0000CF3AB4207D9ED1900F1FF386FD2AB421B
:100DB0006DD902383D44EB1A40EA01418FE7C1F199
:100DC000200722FA07F88B4005FA01F448EA0303EA
:100DD00020FA07FE4FEA134CFD404EEA040EB5FB25
:100DE000FCF94FEA1E440CFB19551FFA83F844EA3C
:100DF000054509FB08F4AC4202FA01F200FA01FAD7
:100E000008D9ED1809F1FF3043D2AC4241D9A9F11C
:100E100002091D442D1B1FFA8EFEB5FBFCF00CFBD6
:100E200010554EEA054400FB08F8A04507D9E41820
:100E300000F1FF3529D2A04527D902381C4440EAE9
:100E40000940A4EB0804A0FB02894C45C6464D4668
:100E500015D312D056B1BAEB0E0364EB050404FAB5
:100E600007F7CB401F43CC40376074600021BDE8DA
:100E7000F0871846F8E69046E0E6C245EAD2B8EBBD
:100E8000020E69EB03050138E4E72846D7E7404640
:100E900091E78146BEE7014678E702383C4445E7E2
:100EA000084608E7A8F102083D442BE7704700BF59
:100EB00080B582B000AF78607868FFF789F90346A3
:100EC0009AB264237968034801F0D3FF00BF083762
:100ED000BD4680BD3402002090B583B000AF03460C
:100EE000FB800D4B1B681846FFF72EFB03460C4694
:100EF0001A46234609490A4802F00EFF0848FFF740
:100F0000D7FF054B4FF000021A60064800F0CEFBF9
:100F100000BF0C37BD4690BD2002002018550008C8
:100F2000000000207802002090B583B000AF786008
:100F3000294B1C68294800F0D8FD03469AB2284B7B
:100F400023F81420244B1B680133234A1360224BDF
:100F50001B68022B02D1204B00221A60214B1B88F8
:100F600007EE903AF8EEE77A9FED1F7A67EE876A10
:100F70001B4B1B8807EE903AB8EEE77AC6EE877AED
:100F80001A4BC3ED007A164B5B8807EE903AB8EE29
:100F9000E77A164BD3ED007A27EE277ADFED146A55
:100FA000C7EE267A134BC3ED007A124BD3ED007ACD
:100FB0009FED117A37EEC77ADFED106AC7EE267A19
:100FC000B3EE097A77EE877A0D4BC3ED007A00BF56
:100FD0000C37BD4690BD00BF2402002078020020DF
:100FE000C00200202A7AFF1F333353401C02002026
:100FF00000F07F45180200205C8F423F0AD7233B58
:101000002002002080B500AF00F09AFA00F00CF842
:1010100000F0FEF800F072F800F0D0F8014800F09F
:1010200045FBFEE77802002080B594B000AF07F1E1
:10103000200330220021184602F0FAF907F10C03D0
:1010400000221A605A609A60DA601A610023BB605D
:10105000284A284B1B6C43F080531364254B1B6CB0
:1010600003F08053BB60BB6800237B60224A224BA5
:101070001B6843F4804313601F4B1B6803F48043D9
:101080007B607B6801233B624FF480337B620223E9
:10109000BB634FF48003FB6304233B64A8237B649E
:1010A0000223BB640423FB6407F12003184601F00C
:1010B00029FA0346002B01D000F00CF90F23FB6046
:1010C00002233B6100237B614FF4A053BB614FF4CB
:1010D0008053FB6107F10C030521184601F08AFCDF
:1010E0000346002B01D000F0F5F800BF5037BD4695
:1010F00080BD00BF003802400070004080B584B061
:1011000000AF3B4600221A605A609A60DA60284BB2
:10111000284A1A60264B4FF480325A60244B002232
:101120009A60234B01221A61214B01221A76204B2F
:10113000002283F820201E4B0022DA621C4B1E4A3C
:101140009A621B4B0022DA60194B0222DA61184BBB
:10115000002283F83020164B01225A61144800F017
:1011600061FA0346002B01D000F0B4F811233B6074
:1011700001237B600323BB603B4619460C4800F00B
:10118000D5FC0346002B01D000F0A4F810233B60EF
:1011900002237B603B461946054800F0C7FC034626
:1011A000002B01D000F096F800BF1037BD4680BD7F
:1011B00078020020002001400100000F80B500AF40
:1011C000114B124A1A60104B4FF416525A600E4BD4
:1011D00000229A600C4B0022DA600B4B00221A614D
:1011E000094B0C225A61084B00229A61064B0022DF
:1011F000DA61054801F0F0FD0346002B01D000F054
:1012000069F800BF80BD00BF3402002000500040DC
:1012100080B58AB000AF07F1140300221A605A604B
:101220009A60DA601A6100233B61274A264B1B6BE8
:1012300043F080031363244B1B6B03F080033B617B
:101240003B690023FB60204A1F4B1B6B43F00103EB
:1012500013631D4B1B6B03F00103FB60FB68002352
:10126000BB60194A184B1B6B43F004031363164B06
:101270001B6B03F00403BB60BB6800237B60124A56
:10128000114B1B6B43F0080313630F4B1B6B03F0F5
:1012900008037B607B6801237B610C4BBB610023EF
:1012A000FB6107F114031946094800F079FF002299
:1012B0000021062000F03DFF062000F056FF00BF91
:1012C0002837BD4680BD00BF003802400000111025
:1012D0000000024080B400AF72B6FEE780B483B075
:1012E00000AF00237B60104A0F4B5B6C43F48043DC
:1012F00053640D4B5B6C03F480437B607B6800237D
:101300003B60094A084B1B6C43F080531364064B47
:101310001B6C03F080533B603B6800BF0C37BD463D
:101320005DF8047B704700BF0038024080B584B090
:1013300000AF78607B681B680E4A934215D100238A
:10134000FB600D4A0C4B5B6C43F4807353640A4B97
:101350005B6C03F48073FB60FB68002200211220A9
:1013600000F0E7FE122000F000FF00BF1037BD467E
:1013700080BD00BF002001400038024080B58AB027
:1013800000AF786007F1140300221A605A609A6077
:10139000DA601A617B681B68284A93424AD10023AD
:1013A0003B61274A264B1B6C43F480131364244B88
:1013B0001B6C03F480133B613B690023FB60204AF4
:1013C0001F4B1B6B43F0040313631D4B1B6B03F09C
:1013D0000403FB60FB680023BB60194A184B1B6BBE
:1013E00043F008031363164B1B6B03F00803BB6049
:1013F000BB684FF480537B610223BB610123FB6117
:1014000003233B6208237B6207F1140319460D484E
:1014100000F0C6FE04237B610223BB610123FB6154
:1014200003233B6208237B6207F114031946064835
:1014300000F0B6FE00BF2837BD4680BD005000401A
:101440000038024000080240000C024080B400AFA7
:10145000FEE780B400AFFEE780B400AFFEE780B4E3
:1014600000AFFEE780B400AFFEE780B400AF00BF7E
:10147000BD465DF8047B704780B400AF00BFBD4639
:101480005DF8047B704780B400AF00BFBD465DF8D7
:10149000047B704780B500AF00F0A4F800BF80BDAA
:1014A00080B500AF012001F015F800BF80BD00003D
:1014B00080B500AF024800F0D7F900BF80BD00BF83
:1014C0007802002080B584B000AF7860114B1B68B3
:1014D000002B02D10F4B104A1A600E4B1B68FB60A9
:1014E0000C4B1A687B6813446A46934207D901F093
:1014F00075FF02460C2313604FF0FF3306E0054BE7
:101500001A687B681344034A1360FB681846103757
:10151000BD4680BD28020020CC02002080B400AF70
:10152000064A064BD3F8883043F47003C2F888307B
:1015300000BFBD465DF8047B704700BF00ED00E0D2
:1015400080B500AF0E4A0E4B1B6843F40073136066
:101550000B4A0B4B1B6843F480631360084A084B2B
:101560001B6843F480731360032000F0D7FD002054
:1015700000F008F8FFF7B2FE0023184680BD00BF58
:10158000003C024080B582B000AF7860124B1A6810
:10159000124B1B7819464FF47A73B3FBF1F3B2FB8D
:1015A000F3F3184600F0EFFD0346002B01D00123B2
:1015B0000EE07B680F2B0AD8002279684FF0FF30CD
:1015C00000F0B7FD064A7B681360002300E00123AA
:1015D00018460837BD4680BD2000002028000020A6
:1015E0002400002080B400AF064B1B781A46064B3F
:1015F0001B681344044A136000BFBD465DF8047BBA
:10160000704700BF28000020C402002080B400AF53
:10161000034B1B681846BD465DF8047B704700BF4E
:10162000C402002080B584B000AF78600023FB7353
:101630007B68002B01D1012333E07B681B6C002BFE
:1016400009D17868FFF772FE7B6800225A647B68D4
:10165000002283F83C207B681B6C03F01003002BF6
:1016600018D17B681B6C23F4885323F0020343F0EA
:1016700002027B681A64786800F07CFB7B680022B9
:101680005A647B681B6C23F0030343F001027B6800
:101690001A6401E00123FB737B68002283F83C207D
:1016A000FB7B18461037BD4680BD000080B485B076
:1016B00000AF78600023BB607B6893F83C30012B5F
:1016C00001D10223BDE07B68012283F83C207B68C6
:1016D0001B689B6803F00103012B18D07B681B6813
:1016E0007A681268926842F001029A60584B1B684F
:1016F000584AA2FB03239A0C13465B001344BB60B9
:1017000002E0BB68013BBB60BB68002BF9D17B6882
:101710001B689B6803F00103012B40F085807B6808
:101720001B6C23F4E06323F0010343F480727B68B5
:101730001A647B681B685B6803F48063002B07D026
:101740007B681B6C23F4405343F480527B681A641B
:101750007B681B6C03F48053B3F5805F06D17B6814
:101760005B6C23F006027B685A6402E07B6800220F
:101770005A647B68002283F83C20374BFB607B680F
:101780001B686FF022021A607B681A687B681B680E
:101790005B6843F0806343F020035360FB685B6841
:1017A00003F01F03002B2AD17B681B682B4A93424E
:1017B00015D07B681B682A4A934205D1264B5B688B
:1017C00003F01F03002B0AD07B681B68254A934255
:1017D00036D1214B5B6803F01F030F2B30D87B6899
:1017E0001B689B6803F04053002B29D17B681B6862
:1017F0007A681268926842F080429A6020E07B68C2
:101800001B68164A93421BD17B681B689B6803F0D8
:101810004053002B14D17B681B687A681268926869
:1018200042F080429A600BE07B681B6C43F0100230
:101830007B681A647B685B6C43F001027B685A64C6
:10184000002318461437BD465DF8047B704700BF7F
:101850002000002083DE1B430023014000200140C4
:10186000002101400022014080B584B000AF7860C3
:101870000023FB600023BB607B681B681B6803F0D0
:101880000203022B0CBF01230023DBB2FB607B6849
:101890001B685B6803F02003202B0CBF012300238F
:1018A000DBB2BB60FB68002B49D0BB68002B46D085
:1018B0007B681B6C03F01003002B05D17B681B6C4D
:1018C00043F400727B681A647B681B689B6803F0B2
:1018D0004053002B2BD17B681B7E002B27D17B68CC
:1018E0001B68DB6A03F47003002B06D07B681B685F
:1018F0009B6803F48063002B19D17B681B687A68AE
:101900001268526822F020025A607B681B6C23F434
:1019100080727B681A647B681B6C03F48053002B15
:1019200005D17B681B6C43F001027B681A64786800
:10193000FFF7FAFA7B681B686FF012021A607B6887
:101940001B681B6803F00403042B0CBF0123002356
:10195000DBB2FB607B681B685B6803F08003802B55
:101960000CBF01230023DBB2BB60FB68002B57D008
:10197000BB68002B54D07B681B6C03F01003002B5A
:1019800005D17B681B6C43F400527B681A647B684A
:101990001B689B6803F44013002B39D17B681B68DC
:1019A0009B6B03F44013002B06D07B681B689B687D
:1019B00003F48063002B2BD17B681B685B6803F406
:1019C0008063002B24D17B681B689B6803F0405325
:1019D000002B1DD17B681B7E002B19D17B681B68F7
:1019E0007A681268526822F080025A607B681B6C29
:1019F00023F480527B681A647B681B6C03F4807349
:101A0000002B05D17B681B6C43F001027B681A64D4
:101A1000786800F0ABFA7B681B686FF00C021A6004
:101A20007B681B681B6803F00103012B0CBF0123BB
:101A30000023DBB2FB607B681B685B6803F040033C
:101A4000402B0CBF01230023DBB2BB60FB68002BE3
:101A500017D0BB68002B14D07B681B681B6803F091
:101A60000103012B0DD17B681B6C43F480327B6832
:101A70001A64786800F046F87B681B686FF0010212
:101A80001A607B681B681B6803F02003202B0CBFC7
:101A900001230023DBB2FB607B681B685B6803F0FB
:101AA0008063B3F1806F0CBF01230023DBB2BB6006
:101AB000FB68002B15D0BB68002B12D07B685B6CD9
:101AC00043F002027B685A647B681B686FF0200257
:101AD0001A60786800F020F87B681B686FF02002BD
:101AE0001A6000BF1037BD4680BD80B483B000AF20
:101AF00078607B681B68DB6C18460C37BD465DF868
:101B0000047B704780B483B000AF786000BF0C37AF
:101B1000BD465DF8047B704780B483B000AF786049
:101B200000BF0C37BD465DF8047B704790B484B0AD
:101B300000AF786039600023BB607B6893F83C306D
:101B4000012B01D1022307E17B68012283F83C20AD
:101B50003B681B68092B26D97B681A687B681B6861
:101B6000D9683B681B689BB2184603465B00034478
:101B70001E3B072000FA03F3DB430B40D3607B6876
:101B80001A687B681B68D9683B6898683B681B6863
:101B90009BB21C4623465B0023441E3B00FA03F322
:101BA0000B43D36023E07B681A687B681B68196964
:101BB0003B681B689BB2184603465B000344072042
:101BC00000FA03F3DB430B4013617B681A687B6800
:101BD0001B6819693B6898683B681B689BB21C4688
:101BE00023465B00234400FA03F30B4313613B6875
:101BF0005B68062B24D87B6819687B681B68586B68
:101C00003B685A6813469B001344053B1F2202FAA7
:101C100003F3DB4303404B637B6819687B681B68F5
:101C2000586B3B681B689BB21C463B685A6813465E
:101C30009B001344053B04FA03F303434B634CE05E
:101C40003B685B680C2B24D87B6819687B681B6831
:101C5000186B3B685A6813469B001344233B1F22B2
:101C600002FA03F3DB4303400B637B6819687B686C
:101C70001B68186B3B681B689BB21C463B685A6824
:101C800013469B001344233B04FA03F303430B6303
:101C900023E07B6819687B681B68D86A3B685A68D0
:101CA00013469B001344413B1F2202FA03F3DB431C
:101CB0000340CB627B6819687B681B68D86A3B6805
:101CC0001B689BB21C463B685A6813469B00134432
:101CD000413B04FA03F30343CB62224BFB607B6876
:101CE0001B68214A934209D13B681B68122B05D11E
:101CF000FB685B6843F48002FB685A607B681B6882
:101D0000194A934223D13B681B68102B03D03B68D0
:101D10001B68112B1BD1FB685B6843F40002FB6856
:101D20005A603B681B68102B11D1104B1B68104A7E
:101D3000A2FB03239A0C13469B0013445B00BB6079
:101D400002E0BB68013BBB60BB68002BF9D17B683C
:101D5000002283F83C20002318461037BD4690BC73
:101D6000704700BF002301400020014020000020F8
:101D700083DE1B4380B485B000AF7860794BFB6095
:101D8000FB685B6823F44032FB685A60FB685A6862
:101D90007B685B681A43FB685A607B681B687A68DB
:101DA0001268526822F480725A607B681B687A68F5
:101DB000126851687A68126912020A435A607B6895
:101DC0001B687A681268526822F040725A607B6819
:101DD0001B687A68126851687A6892680A435A6088
:101DE0007B681B687A681268926822F400629A60C5
:101DF0007B681B687A68126891687A68D2680A43BF
:101E00009A607B689B6A584A934222D07B681B6821
:101E10007A681268926822F070629A607B681B6828
:101E20007A68126891687A68926A0A439A607B6855
:101E30001B687A681268926822F040529A607B6848
:101E40001B687A68126891687A68D26A0A439A6055
:101E50000FE07B681B687A681268926822F07062F3
:101E60009A607B681B687A681268926822F0405218
:101E70009A607B681B687A681268926822F0020296
:101E80009A607B681B687A68126891687A68127E2B
:101E900052000A439A607B6893F82030002B1BD0D5
:101EA0007B681B687A681268526842F400625A6064
:101EB0007B681B687A681268526822F460425A6034
:101EC0007B681B687A68126851687A68526A013ABE
:101ED00052030A435A6007E07B681B687A681268FD
:101EE000526822F400625A607B681B687A68126844
:101EF000D26A22F47002DA627B681B687A68126820
:101F0000D16A7A68D269013A12050A43DA627B68BB
:101F10001B687A681268926822F400729A607B6883
:101F20001B687A68126891687A6892F830205202C9
:101F30000A439A607B681B687A681268926822F488
:101F400080629A607B681B687A68126891687A6818
:101F5000526992020A439A6000BF1437BD465DF889
:101F6000047B7047002301400100000F80B483B060
:101F700000AF786000BF0C37BD465DF8047B70474A
:101F800080B485B000AF78607B6803F00703FB6026
:101F90000C4BDB68BB60BA684FF6FF031340BB60B5
:101FA000FB681A02BB68134343F0BF6343F400337A
:101FB000BB60044ABB68D36000BF1437BD465DF800
:101FC000047B704700ED00E080B400AF044BDB6899
:101FD0001B0A03F007031846BD465DF8047B7047F3
:101FE00000ED00E080B483B000AF0346FB7197F9C9
:101FF0000730002B0BDB094997F907305B09FA79A9
:1020000002F01F02012000FA02F241F8232000BF73
:102010000C37BD465DF8047B704700BF00E100E06F
:1020200080B483B000AF03463960FB7197F9073085
:10203000002B0ADB0D4997F907303A68D2B212013A
:10204000D2B20B4483F800230AE00949FB7903F07C
:102050000F03043B3A68D2B21201D2B20B441A7693
:1020600000BF0C37BD465DF8047B704700E100E01F
:1020700000ED00E080B489B000AFF860B9607A602C
:10208000FB6803F00703FB61FB69C3F10703042B43
:1020900028BF0423BB61FB690433062B02D9FB690B
:1020A000033B00E000237B610122BB6902FA03F3DA
:1020B0005A1EBB681A407B699A4001217B6901FA6C
:1020C00003F3591E7B680B40134318462437BD4663
:1020D0005DF8047B7047000080B582B000AF786087
:1020E0007B68013BB3F1807F01D301230FE00A4AF3
:1020F0007B68013B53600F214FF0FF30FFF790FFEB
:10210000054B00229A60044B07221A6000231846F0
:102110000837BD4680BD00BF10E000E080B582B04A
:1021200000AF78607868FFF72BFF00BF0837BD4627
:1021300080BD80B586B000AF0346B9607A60FB739E
:1021400000237B61FFF740FF78617A68B96878699E
:10215000FFF790FF024697F90F3011461846FFF738
:102160005FFF00BF1837BD4680BD80B582B000AFAD
:102170000346FB7197F907301846FFF733FF00BF9E
:102180000837BD4680BD80B582B000AF7860786802
:10219000FFF7A2FF034618460837BD4680BD000082
:1021A00080B489B000AF7860396000237B61002380
:1021B0003B610023BB610023FB616BE10122FB69F2
:1021C00002FA03F37B613B681A687B6913403B6149
:1021D0003A697B699A4240F05A813B685B6803F038
:1021E0000303012B05D03B685B6803F00303022B5C
:1021F00030D17B689B68BB61FB695B00032202FAFC
:1022000003F3DB43BA691340BB613B68DA68FB69DF
:102210005B0002FA03F3BA691343BB617B68BA69D6
:102220009A607B685B68BB610122FB6902FA03F379
:10223000DB43BA691340BB613B685B681B0903F071
:102240000102FB6902FA03F3BA691343BB617B68BD
:10225000BA695A603B685B6803F00303032B17D02D
:102260007B68DB68BB61FB695B00032202FA03F356
:10227000DB43BA691340BB613B689A68FB695B004A
:1022800002FA03F3BA691343BB617B68BA69DA6087
:102290003B685B6803F00303022B23D1FB69DA0878
:1022A0007B68083253F82230BB61FB6903F00703F7
:1022B0009B000F2202FA03F3DB43BA691340BB61B0
:1022C0003B681A69FB6903F007039B0002FA03F3FA
:1022D000BA691343BB61FB69DA087B680832B969E4
:1022E00043F822107B681B68BB61FB695B0003221B
:1022F00002FA03F3DB43BA691340BB613B685B68D6
:1023000003F00302FB695B0002FA03F3BA691343AB
:10231000BB617B68BA691A603B685B6803F08053F5
:10232000002B00F0B4800023FB605F4A5E4B5B6CC7
:1023300043F4804353645C4B5B6C03F48043FB6069
:10234000FB685A4AFB699B08023352F82330BB6191
:10235000FB6903F003039B000F2202FA03F3DB4344
:10236000BA691340BB617B68514A93422BD07B68AA
:10237000504A934225D07B684F4A93421FD07B68D6
:102380004E4A934219D07B684D4A934213D07B68E2
:102390004C4A93420DD07B684B4A934207D07B68EE
:1023A0004A4A934201D107230EE008230CE006239A
:1023B0000AE0052308E0042306E0032304E00223E7
:1023C00002E0012300E00023FA6902F00302920018
:1023D0009340BA691343BB613449FB699B080233DC
:1023E000BA6941F823203A4B1B68BB613B69DB4368
:1023F000BA691340BB613B685B6803F48033002B10
:1024000003D0BA693B691343BB61314ABB691360AE
:102410002F4B5B68BB613B69DB43BA691340BB610F
:102420003B685B6803F40033002B03D0BA693B6957
:102430001343BB61264ABB695360254B9B68BB6154
:102440003B69DB43BA691340BB613B685B6803F4DB
:102450008013002B03D0BA693B691343BB611C4A4C
:10246000BB6993601A4BDB68BB613B69DB43BA69AC
:102470001340BB613B685B6803F40013002B03D07F
:10248000BA693B691343BB61114ABB69D360FB69FD
:102490000133FB61FB690F2B7FF690AE00BF243741
:1024A000BD465DF8047B70470038024000380140AB
:1024B000000002400004024000080240000C0240FC
:1024C000001002400014024000180240001C0240AC
:1024D000003C014080B582B000AF0346FB80084B52
:1024E0005A69FB881340002B06D0054AFB885361CC
:1024F000FB881846FEF7F0FC00BF0837BD4680BDDC
:10250000003C014080B586B000AF78607B68002B4E
:1025100001D1012364E27B681B6803F00103002BF7
:1025200075D0A34B9B6803F00C03042B0CD0A04B7D
:102530009B6803F00C03082B12D19D4B5B6803F4DE
:102540008003B3F5800F0BD1994B1B6803F4003364
:10255000002B5BD07B685B68002B57D101233FE2E7
:102560007B685B68B3F5803F06D1914A904B1B684E
:1025700043F4803313601DE07B685B68B3F5A02FE4
:102580000CD18B4A8A4B1B6843F480231360884A22
:10259000874B1B6843F4803313600BE0844A844B01
:1025A0001B6823F480331360814A814B1B6823F43A
:1025B000802313607B685B68002B13D0FFF726F83D
:1025C000386108E0FFF722F802463B69D31A642B12
:1025D00001D9032304E2764B1B6803F40033002B7C
:1025E000F0D014E0FFF712F8386108E0FFF70EF8BA
:1025F00002463B69D31A642B01D90323F0E16C4BEB
:102600001B6803F40033002BF0D100E000BF7B68AF
:102610001B6803F00203002B63D0654B9B6803F03B
:102620000C03002B0BD0624B9B6803F00C03082BB0
:102630001CD15F4B5B6803F48003002B16D15C4B0D
:102640001B6803F00203002B05D07B68DB68012BBD
:1026500001D00123C4E15649554B1B6823F0F80211
:102660007B681B69DB0013430B603AE07B68DB6827
:10267000002B20D04F4B01221A60FEF7C7FF3861B4
:1026800008E0FEF7C3FF02463B69D31A022B01D9CB
:102690000323A5E1464B1B6803F00203002BF0D097
:1026A0004349434B1B6823F0F8027B681B69DB003E
:1026B00013430B6015E03F4B00221A60FEF7A6FFA4
:1026C000386108E0FEF7A2FF02463B69D31A022BED
:1026D00001D9032384E1364B1B6803F00203002B6E
:1026E000F0D17B681B6803F00803002B30D07B68B7
:1026F0005B69002B16D0304B01221A60FEF786FF73
:10270000386108E0FEF782FF02463B69D31A022BCC
:1027100001D9032364E1264B5B6F03F00203002B16
:10272000F0D015E0244B00221A60FEF76FFF3861ED
:1027300008E0FEF76BFF02463B69D31A022B01D972
:1027400003234DE11A4B5B6F03F00203002BF0D122
:102750007B681B6803F00403002B00F0A0800023BB
:10276000FB75134B1B6C03F08053002B0FD1002320
:10277000BB600F4A0E4B1B6C43F0805313640C4B31
:102780001B6C03F08053BB60BB680123FB750B4BD4
:102790001B6803F48073002B21D1084A074B1B6888
:1027A00043F480731360FEF731FF386111E000BF1E
:1027B0000038024000004742800E4742007000404F
:1027C000FEF724FF02463B69D31A022B01D90323EB
:1027D00006E1854B1B6803F48073002BF0D07B6807
:1027E0009B68012B06D1814A804B1B6F43F001038C
:1027F00013671CE07B689B68052B0CD17B4A7B4BE5
:102800001B6F43F004031367784A784B1B6F43F048
:10281000010313670BE0754A744B1B6F23F0010330
:102820001367724A714B1B6F23F0040313677B68B5
:102830009B68002B15D0FEF7E9FE38610AE0FEF731
:10284000E5FE02463B69D31A41F28832934201D930
:102850000323C5E0654B1B6F03F00203002BEED092
:1028600014E0FEF7D3FE38610AE0FEF7CFFE024621
:102870003B69D31A41F28832934201D90323AFE076
:102880005A4B1B6F03F00203002BEED1FB7D012B93
:1028900005D1564A554B1B6C23F0805313647B685B
:1028A0009B69002B00F09B80504B9B6803F00C034E
:1028B000082B5CD07B689B69022B41D14C4B0022DA
:1028C0001A60FEF7A3FE386108E0FEF79FFE02469D
:1028D0003B69D31A022B01D9032381E0434B1B68C8
:1028E00003F00073002BF0D140497B68DA697B6804
:1028F0001B6A1A437B685B6A9B011A437B689B6A6D
:102900005B08013B1B041A437B68DB6A1B0613430D
:102910004B60374B01221A60FEF778FE386108E001
:10292000FEF774FE02463B69D31A022B01D903233A
:1029300056E02E4B1B6803F00073002BF0D04EE0E6
:102940002B4B00221A60FEF761FE386108E0FEF7AB
:102950005DFE02463B69D31A022B01D903233FE0F7
:10296000224B1B6803F00073002BF0D137E07B682B
:102970009B69012B01D1012332E01C4B5B68FB609A
:102980007B689B69012B28D0FB6803F480027B687D
:10299000DB699A4221D1FB6803F03F027B681B6A26
:1029A0009A421AD1FA6847F6C07313407A68526A9D
:1029B0009201934211D1FB6803F440327B689B6A19
:1029C0005B08013B1B049A4207D1FB6803F070626D
:1029D0007B68DB6A1B069A4201D0012300E00023DA
:1029E00018461837BD4680BD0070004000380240D0
:1029F0006000474280B584B000AF786039607B6882
:102A0000002B01D10123CCE0684B1B6803F00702C7
:102A10003B689A420CD2654B3A68D2B21A70634B4B
:102A20001B6803F007023B689A4201D00123B8E01B
:102A30007B681B6803F00203002B20D07B681B68B7
:102A400003F00403002B05D0594A594B9B6843F40B
:102A5000E05393607B681B6803F00803002B05D0EC
:102A6000534A534B9B6843F4604393605049504B27
:102A70009B6823F0F0027B689B6813438B607B6844
:102A80001B6803F00103002B44D07B685B68012BBB
:102A900007D1474B1B6803F40033002B19D10123E6
:102AA0007FE07B685B68022B03D07B685B68032B4D
:102AB00007D13F4B1B6803F00073002B09D10123A2
:102AC0006FE03B4B1B6803F00203002B01D1012395
:102AD00067E03749364B9B6823F003027B685B68ED
:102AE00013438B60FEF792FDF8600AE0FEF78EFD5F
:102AF0000246FB68D31A41F28832934201D903237C
:102B00004FE02B4B9B6803F00C027B685B689B00DB
:102B10009A42EBD1254B1B6803F007023B689A42AF
:102B20000CD9224B3A68D2B21A70204B1B6803F0C2
:102B300007023B689A4201D0012332E07B681B68A0
:102B400003F00403002B08D01949194B9B6823F4A8
:102B5000E0527B68DB6813438B607B681B6803F083
:102B60000803002B09D01249114B9B6823F46042E3
:102B70007B681B69DB0013438B6000F021F8014682
:102B80000B4B9B681B0903F00F030A4AD35C21FA25
:102B900003F3094A1360094B1B681846FEF7F2FC61
:102BA000002318461037BD4680BD00BF003C0240E0
:102BB000003802402C55000820000020240000208E
:102BC0002DE9F04F8FB000AF0023FB6200237B6341
:102BD0000023BB6200233B63624B9B6803F00C0342
:102BE000042B07D0082B08D0002B40F0B2805E4B9E
:102BF0003B63B1E05D4B3B63AEE05A4B5B6803F077
:102C00003F03FB62574B5B6803F48003002B4ED0FD
:102C1000544B5B689B094FF0000440F2FF114FF0EA
:102C2000000201EA030102EA04020B4614466001B5
:102C30007862786A40EAD36078625B013B62D7E9E8
:102C400008345B1A64EB02044FEA841949EA936979
:102C50004FEA8318B8EB030869EB04094FEAC9038C
:102C6000FB61FB6943EA5873FB614FEAC803BB6130
:102C7000D7E9068918EB010849EB02094FEA492315
:102C80007B617B6943EAD8537B614FEA48233B6110
:102C9000D7E9048940464946FB6A4FF000041A46CA
:102CA0002346FDF77DFF03460C467B6343E02D4B37
:102CB0005B689B094FF0000440F2FF114FF00002E7
:102CC00001EA030102EA04020B4614466001F860BF
:102CD000F86840EAD360F8605B01BB60D7E9023472
:102CE0005B1A64EB0204A60146EA93669D01ED1AA5
:102CF00066EB0406F3007B607B6843EA55737B60F8
:102D0000EB003B6097E860006D1846EB02064FEA67
:102D1000862B4BEA955B4FEA852A55465E46284648
:102D20003146FB6A4FF000041A462346FDF738FF90
:102D300003460C467B630B4B5B681B0C03F00303E1
:102D400001335B00BB627A6BBB6AB2FBF3F33B639C
:102D500002E0054B3B6300BF3B6B18463C37BD466A
:102D6000BDE8F08F003802400024F40000127A0021
:102D700080B400AF034B1B681846BD465DF8047B6A
:102D8000704700BF2000002080B500AFFFF7F0FFC4
:102D90000146054B9B689B0A03F00703034AD35C7B
:102DA00021FA03F3184680BD003802403C55000864
:102DB00080B500AFFFF7DCFF0146054B9B685B0B5E
:102DC00003F00703034AD35C21FA03F3184680BDDE
:102DD000003802403C55000880B582B000AF7860F2
:102DE0007B68002B01D101233FE07B6893F83D30E5
:102DF000DBB2002B06D17B68002283F83C20786888
:102E0000FEF7BCFA7B68242283F83D207B681B68B0
:102E10007A681268D26822F40052DA60786800F0AA
:102E200003F97B681B687A681268126922F4904281
:102E30001A617B681B687A681268526922F02A025C
:102E40005A617B681B687A681268D26842F4005243
:102E5000DA607B6800221A647B68202283F83D20B8
:102E60007B68202283F83E20002318460837BD46A1
:102E700080BD80B58AB002AFF860B9603B60134690
:102E8000FB8000237B61FB6893F83D30DBB2202B95
:102E90007BD1BB68002B02D0FB88002B01D1012322
:102EA00074E0FB6893F83C30012B01D102236DE004
:102EB000FB68012283F83C20FB6800221A64FB684F
:102EC000212283F83D20FEF7A1FB7861FB68FA8898
:102ED0009A84FB68FA88DA84FB689B68B3F5805FA4
:102EE00008D1FB681B69002B04D10023FB61BB6880
:102EF000BB6103E0BB68FB610023BB61FB68002290
:102F000083F83C2029E03B6800937B690022802104
:102F1000F86800F03FF80346002B01D0032335E0AA
:102F2000FB69002B0AD1FB681B68BA691288C2F3DF
:102F300008025A60BB690233BB6107E0FB681B688B
:102F4000FA6912785A60FB690133FB61FB68DB8C1C
:102F50009BB2013B9AB2FB68DA84FB68DB8C9BB2C4
:102F6000002BD0D13B6800937B6900224021F86898
:102F700000F010F80346002B01D0032306E0FB68A5
:102F8000202283F83D20002300E00223184620374A
:102F9000BD4680BD80B584B000AFF860B9603B60CD
:102FA0001346FB712CE0BB69B3F1FF3F28D0BB692E
:102FB000002B07D0FEF72AFB02463B68D21ABB69FA
:102FC0009A421DD9FB681B68FA681268D26822F41D
:102FD000D072DA60FB681B68FA681268526922F0E6
:102FE00001025A61FB68202283F83D20FB68202201
:102FF00083F83E20FB68002283F83C2003230FE087
:10300000FB681B681A68BB681A40BB689A420CBF11
:1030100001230023DBB21A46FB799A42C3D0002376
:1030200018461037BD4680BD2DE9F04F91B000AF76
:1030300078637B6B19687B6B1B681B6923F44052B8
:103040007B6BDB6813430B617B6B9A687B6B1B6943
:103050001A437B6B5B691A437B6BDB691343BB636E
:103060007B6B19687B6B1B68DB6823F4164222F0CC
:103070000C02BB6B1343CB607B6B19687B6B1B68CB
:103080005B6923F440727B6B9B6913434B617B6BE1
:103090001A68BA4B9A4204D07B6B1A68B84B9A42B2
:1030A00003D1FFF785FEF86302E0FFF76DFEF863DA
:1030B0007B6BDB69B3F5004F40F0A7807B6B1A6830
:1030C000BA62FB6B19464FF000020B461446DB1840
:1030D00044EB04045B1844EB0204E0007861786977
:1030E00040EA53707861DB003B61D7E904345D1836
:1030F00044EB0206284631467B6B5B684FF00004C8
:10310000DB1844EB04041A462346FDF749FD034649
:103110000C461A469B4BA3FB02235B091E01FB6B6B
:1031200019464FF000020B461446DB1844EB04042A
:103130005B1844EB02044FEAC40B4BEA537B4FEAA3
:10314000C30A53465C4613EB010A44EB020B50469C
:1031500059467B6B5B684FF00004DB1844EB0404BA
:103160001A462346FDF71CFD03460C461A46854BBE
:10317000A3FB02135B09642101FB03F3D31ADB00F9
:103180003233804AA2FB03235B095B0003F4F8732C
:103190001E44FB6B19464FF000020B461446DB1829
:1031A00044EB04045B1844EB02044FEAC40949EA07
:1031B00053794FEAC30843464C4613EB010844EBEE
:1031C0000209404649467B6B5B684FF00004DB1800
:1031D00044EB04041A462346FDF7E2FC03460C4682
:1031E0001A46684BA3FB02135B09642101FB03F33E
:1031F000D31ADB003233634AA2FB03235B0903F0DB
:1032000007033344BA6A9360B3E07B6B1B683B618E
:10321000FB6B19464FF000020B461446DB1844EBDB
:1032200004045B1844EB0204E60046EA5376DD0032
:103230002B4634465D1844EB0206284631467B6B2C
:103240005B684FF00004A500FD62FD6A45EA9375D6
:10325000FD629C00BC62D7E90A23FDF7A1FC03468E
:103260000C461A46474BA3FB02135B091D01FB6B7F
:1032700019464FF000020B461446DB1844EB0404D9
:103280005B1844EB0204E000F860F86840EA537011
:10329000F860D800B860D7E9023413EB010844EBBA
:1032A0000209404649467B6B5B684FF00004A6006C
:1032B0007E627E6A46EA93767E629C003C62D7E933
:1032C0000823FDF76DFC03460C461A462D4BA3FB65
:1032D00002135B09642101FB03F3D31A1B01323390
:1032E000284AA2FB03135B0903F0F0031D44FB6BA8
:1032F00019464FF000020B461446DB1844EB040459
:103300005B1844EB0204E0007860786840EA537090
:103310007860D800386097E8180013EB010844EB98
:103320000209404649467B6B5B684FF00004A600EB
:10333000FE61FE6946EA9376FE619C00BC61D7E9B6
:103340000623FDF72DFC03460C461A460D4BA3FB46
:1033500002135B09642101FB03F3D31A1B0132330F
:10336000084AA2FB03135B0903F00F032B443A69DD
:10337000936000BF4437BD46BDE8F08F00100140A8
:10338000001401401F85EB51DFF834D00D480E4981
:103390000E4A002302E0D458C4500433C4188C42AF
:1033A000F9D30B4A0B4C002301E013600432A24214
:1033B000FBD3FEF7B3F800F017F8FDF723FE7047D4
:1033C0000000022000000020FC010020B05700088F
:1033D000FC010020CC020020FEE70000014B186831
:1033E000704700BF2C00002070B50D4E0D4CA41B83
:1033F000A4100025A54209D10B4E0C4C02F080F818
:10340000A41BA4100025A54205D170BD56F8253097
:1034100098470135EEE756F8253098470135F2E731
:10342000A8570008A8570008A8570008AC5700087C
:1034300002440346934200D1704703F8011BF9E7A9
:103440002DE9FF4755EC104B0D9FDDF830A0002D06
:103450000E4691461946B8BF22462B4627F0200754
:10346000BBBF05F100431D4600232D23B8BF144602
:10347000462F0B7004D0452F00D10136022100E009
:10348000032103AB019302AB00933246534645EC54
:10349000104B00F0F1FC472F804602D119F0010FCC
:1034A00026D0462F08EB060911D198F80030302BB2
:1034B0000AD10022002320462946FDF701FB18B956
:1034C000C6F10106CAF80060DAF80030994400221B
:1034D000002320462946FDF7F3FA38B93022039B32
:1034E000994505D9591C03911A70F8E7CDF80C904D
:1034F000039B0E9AA3EB08034046136004B0BDE89B
:10350000F087F7B503460029B8BF494203F8022BFC
:10351000B4BF2D222B220929427020DD0DF10702B4
:1035200017460A2691FBF6F506FB15113031092DD9
:1035300002F8011C02F1FF34294609DC3031023A5D
:1035400004F8011CBA421C4604D3201A03B0F0BD93
:103550002246E7E712F8011B03F8011BF2E73022CD
:103560001C46114404F8022B5970EEE72DE9F04F88
:103570008DB00C46DDF8588016461F46054601F012
:1035800049FA036804931846FCF722FE00230A93C5
:10359000D8F800300590073323F0070303F1080241
:1035A00094F818A0D4F800B0C8F80020D3E900239C
:1035B000C4E91223D4E9128929F000430793CDF816
:1035C00018804FF0FF32A54BDDE90601FDF7AAFA9E
:1035D000002840F0FB814FF0FF32A04BDDE90601EF
:1035E000FDF782FA002840F0F181002200234046D6
:1035F0004946FDF76FFA10B12D2384F84330984BFC
:10360000984ABAF1470F8CBF9046984603232BF097
:103610000402236122604FF00009009733460BAA91
:103620002146284600F0E2F9013040F093804FF047
:10363000FF300DB0BDE8F08F61684B1C4BF4806229
:103640003FD106236360002303930AAB029309ABC7
:10365000009349EC108B0DF123032260CDF804A0F8
:1036600061682846FFF7ECFE0AF0DF03472B80462F
:1036700009D1099BD81C02DB6268934257DDAAF18D
:10368000020A5FFA8AFABAF1650F099934D801394A
:10369000524604F150000991FFF733FF0A9A83184C
:1036A000012A8146236102DC2268D10701D501335A
:1036B00023619DF82330002BAFD02D2384F84330B5
:1036C000ABE7BAF1670F02D0BAF1470FBBD189B1AE
:1036D000002303930AAB029309AB009349EC108BD0
:1036E0002260CDF804A00DF123032846FFF7A8FEC1
:1036F0008046BEE70123A5E7BAF1660F19D100297C
:1037000063680CDD216113B92268D20702D5013349
:103710000B442361099BA3654FF00009C9E713B966
:103720002268D00701D50233F3E70123F1E74FF018
:10373000670A099B0A9A934205DB22682361D10735
:10374000E8D50133E5E7002BD4BFC3F10203012321
:103750001344DEE723685A0507D4236942463146FD
:103760002846B84701302BD161E7BAF1650F40F226
:10377000E28000220023D4E91201FDF7A1F900281C
:103780003CD00123384A31462846B84701303FF43F
:103790004EAF0A9B099A9A4202DB2368D8070FD5DD
:1037A000059B049A31462846B84701303FF43FAFA5
:1037B0004FF0000804F11A090A9B013B984512DBFF
:1037C00023689B0709D54FF0000804F11909E36845
:1037D0000B9A9B1A9845C0F2EE80E0680B9B9842CA
:1037E000B8BF184625E701234A4631462846B84760
:1037F00001303FF41CAF08F10108DDE7099B002B05
:1038000034DC0123184A31462846B84701303FF4DA
:103810000EAF099B23B90A9B13B92368D907CFD5EB
:10382000059B049A31462846B84701303FF4FFAE65
:103830004FF0000904F11A0A099B5B42994501DB2C
:103840000A9B8BE70123524631462846B847013090
:103850003FF4EDAE09F10109EEE700BFFFFFEF7F96
:103860004455000848550008545500080A9AA36DAD
:103870009A42A8BF1A46002A914638DC04F11A037E
:103880004FF0000B29EAE9790693D4F858A0AAEB87
:1038900009039B4533DB0A9B099A9A423ADB23686A
:1038A000DA0737D40A9B0999A3EB0A02A3EB0109B3
:1038B0009145A8BF9146B9F1000F33DC4FF00008E5
:1038C00029EAE97904F11A0A099A0A9B9B1AA3EBDF
:1038D00009039845BFF674AF012352463146284686
:1038E000B84701303FF4A3AE08F10108ECE71346F6
:1038F000314642462846B8470130BFD197E60123FA
:10390000069A31462846B84701303FF490AE0BF195
:10391000010BBAE7059B049A31462846B8470130A7
:10392000C0D184E64B4608EB0A0231462846B84728
:103930000130C3D17BE60A9A012A01DCDB0737D5C7
:103940000123424631462846B84701303FF46FAE66
:10395000059B049A31462846B84701303FF467AECC
:1039600000220023D4E91201FDF7AAF858B14FF064
:10397000000804F11A0A0A9B013B98450DDB4B46EF
:1039800004F15002EBE60A9B08F10102013B3146CB
:103990002846B8470130F2D149E601235246314664
:1039A0002846B84701303FF442AE08F10108E2E78B
:1039B00001234246EBE701234A4631462846B847F1
:1039C00001303FF434AE08F1010800E742464B46AF
:1039D00040464946FDF7A6F800283FF42DAE014BBE
:1039E000014A0EE64C550008505500082DE9F047F5
:1039F00091461F468A680B69DDF820809342B8BF64
:103A00001346C9F8003091F8432006460C4612B11F
:103A10000133C9F800302368990642BFD9F8003055
:103A20000233C9F80030256815F0060507D104F106
:103A3000190AE368D9F800209B1A9D4229DB94F803
:103A400043302268003318BF012392062ED404F1BC
:103A5000430239463046C047013021D02368E5682B
:103A6000D9F8002003F00603042B08BFAD1AA368A1
:103A700022690CBF25EAE57500259342C4BF9B1A55
:103A8000ED184FF000091A344D451BD10020BDE858
:103A9000F0870123524639463046C047013003D1F2
:103AA0004FF0FF30BDE8F0870135C2E7E1185A1C3E
:103AB000302081F84300224494F8451082F84310E6
:103AC0000233C4E70123224639463046C04701305D
:103AD000E6D009F10109D7E72DE9F04317460A7E40
:103AE00085B06E2A984606460C460C9B01F1430EA3
:103AF00000F0BC801AD8632A2ED00AD8002A00F021
:103B0000C880582A00F08A8004F1420584F84220D7
:103B10002AE0642A01D0692AF6D121681A6811F0D6
:103B2000800F23D0111D1960136827E0732A00F05D
:103B3000B48008D86F2A2AD0702AE5D10A6842F0EA
:103B400020020A6003E0752A21D0782ADCD178228D
:103B500084F845206E4964E01A6801F14205111DA0
:103B60001960136884F842300123A3E011F0400F7C
:103B700002F104011960D7D0B2F90030002B03DA4A
:103B80002D225B4284F8432062490A2217E0206814
:103B9000196810F0800F03D0081D18600B6806E04C
:103BA00010F0400F01F104001860F7D00B8859495C
:103BB0006F2A14BF0A220822002084F84300656897
:103BC000A560002DC0F29C80206820F004002060D9
:103BD000002B3FD1002D40F095807546082A0BD16F
:103BE0002368DA0708D5236962689A42DEBF30236A
:103BF00005F8013C05F1FF35AEEB05032361CDF877
:103C000000803B4603AA21463046FFF7EFFE013015
:103C100055D14FF0FF3005B0BDE8F08381F8452065
:103C20003C492268186812F0800F00F104051D60FD
:103C300001D0036802E05506FBD50388D00744BFD6
:103C400042F0200222601BB9226822F0200222608A
:103C50001022B1E77546B3FBF2F002FB1033CB5CE8
:103C600005F8013D03460028F5D1B7E708681A6852
:103C7000496910F0800F04D0101D18601368196096
:103C800007E010F0400F02F1040018601368F6D04E
:103C90001980002323617546B1E71A68111D196068
:103CA0001568626800212846FCF79AFA08B1401BA3
:103CB000606063682361002384F843309FE72369D1
:103CC0002A4639463046C0470130A2D023689B07B8
:103CD00007D5002504F11909E368039A9B1A9D4250
:103CE00005DBE068039B9842B8BF184693E70123C1
:103CF0004A4639463046C04701308AD00135EBE7A5
:103D0000002BA7D10B7884F8423004F1420565E717
:103D100067550008565500080EB400B59CB04FF426
:103D200002711DABADF81410029006906FF00041C7
:103D30000A48049107914FF6FF7153F8042BADF830
:103D400016100068019302A901F06CFA029B002290
:103D50001A701CB05DF804EB03B070472C00002013
:103D60002DE9F74F03690C699C42804600F382807D
:103D7000013C01F114074FEA840E00F1140657F8D4
:103D8000245056F8240006EB0E03013507EB0E090C
:103D90000193B0FBF5F595B34FF0000A3846B446F1
:103DA000D34650F8042B93B205FB03A34FEA134A02
:103DB0009BB2ABEB0303120CBCF800B005FB02A2F4
:103DC00013FA8BF34FEA124A1FFA82FBDCF8002049
:103DD000CBEB124202EB23429BB243EA0243814502
:103DE0004FEA224B4CF8043BDBD256F80E3033B985
:103DF000019B043B9E421A4630D3C8F8104040460F
:103E000001F033F8002825DB013530464FF0000E75
:103E100057F8042BD0F800C093B2AEEB0303120C9A
:103E200013FA8CF3C2EB1C4202EB23429BB243EA2F
:103E30000243B9454FEA224E40F8043BE8D256F817
:103E4000242006EB84032AB9043B9E421A460BD376
:103E5000C8F81040284603B0BDE8F08F1268043B54
:103E6000002ACAD1013CC5E71268043B002AEFD101
:103E7000013CEAE70020EEE72DE9F04F57EC106B2C
:103E800097B0CDE90067466A079104460A920F93FE
:103E9000209D3EB9102000F0CBFD60624660866038
:103EA0000660C660636A196851B15A684A600123A6
:103EB00093408B60204600F002FE636A00221A6085
:103EC000019B002BBFBF01232B60019B23F000430C
:103ED000B2BF019300232B60DDF80480A84B33EAC6
:103EE00008031BD10F9A42F20F731360009B23B992
:103EF000C8F31300002800F07885219B53B9A14B2B
:103F000021E0A14B02930833219A1360029817B065
:103F1000BDE8F08F9B4B02930333F5E7DDE90067C3
:103F20000022002330463946FCF7CAFD814660B1C5
:103F30000F9A01231360219B002B00F05385934BB4
:103F4000219A1360013B0293E0E714AA15A947ECFC
:103F5000106B204601F001F8C8F30A558246002D87
:103F60007ED0C7F3130343F07F51304641F4401134
:103F7000A5F2FF35CDF848900022854BFCF784F977
:103F800079A3D3E90023FCF733FB79A3D3E900231A
:103F9000FCF77CF9064628460F46FCF7C3FA76A3E1
:103FA000D3E90023FCF724FB02460B463046394692
:103FB000FCF76CF906460F46FCF7CAFD0022834663
:103FC000002330463946FCF785FD58B15846FCF7CA
:103FD000A9FA02460B4630463946FCF771FD08B98E
:103FE0000BF1FF3BBBF1160F59D86A4901EBCB012E
:103FF000DDE90023D1E90001FCF78AFD002850D05B
:104000000BF1FF3B00230E93149B5D1B6B1E06936D
:1040100045BFC5F101030593002300234CBF069360
:104020000593BBF1000F3EDB069BCDF82CB05B4443
:10403000069300230893079B092B00F2AF80052B02
:10404000C4BF043B0793079BA3F10203CCBF002628
:104050000126032B00F2AE80DFE803F082842F7785
:10406000159B149D1D4405F23243202B11DD009A4F
:1040700005F21240C3F1400322FA00F008FA03F3FC
:104080001843FCF73FFA0123A1F1F871013D1293A7
:1040900072E7C3F12000009B03FA00F0F1E701236F
:1040A000B1E70E90B0E7059BA3EB0B030593CBF1B3
:1040B0000003089300230B93BDE7012309930A9B98
:1040C000002B7ADD04930393656A00226A60042161
:1040D00001F114029A4275D96968204600F0BBFCD0
:1040E000636A28601B680293039B0E2B00F2E58035
:1040F000002E00F0E2809DED007BBBF1000F8DED06
:104100000C7B74DD234A0BF00F034FEA2B1602EBF6
:10411000C303F006D3E9008959D51F4B51EC170BA7
:10412000D3E90823FCF78EFBCDE9000106F00F066A
:104130000325194F002E4CD142464B46DDE90001C4
:10414000FCF780FBCDE900016AE0012309930A9B9B
:104150005B4404930133012B0393B8BF0123B3E7FE
:104160000023ABE70023F1E761436F63A787D23FEA
:10417000B3C8608B288AC63FFB799F501344D33F56
:104180000000F07F8155000878550008555500085B
:104190000000F83FB05500088855000801260023AC
:1041A000079309964FF0FF330493039300221223E1
:1041B0000A9289E701230993F4E701230493039307
:1041C0001A46F5E76A6801326A60490080E702250D
:1041D000AFE7F10708D540464946D7E90023FCF789
:1041E00007FA01358046894676100837A2E700F0C5
:1041F0009D80CBF100069F4B9F4F06F00F0203EB13
:10420000C203D3E90023DDE90C01FCF7F1F9CDE9A4
:104210000001361100230225002E7CD1002B91D104
:104220000E9B002B00F08480DDE900890022934B77
:1042300040464946FCF74EFC002879D0039B002BF2
:1042400076D0049B002B34DD00228D4B404649463E
:10425000FCF7CEF9CDE90001049E0BF1FF370135E3
:104260002846FCF75FF9DDE90023FCF7C1F90022DD
:10427000844BFCF70BF88046A1F15079002E5AD1FF
:104280000022814BDDE90001FBF7FEFF42464B4671
:10429000CDE90001FCF73CFC002840F09B8242463F
:1042A00009F10043DDE90001FCF714FC002840F0AF
:1042B0008F82DDE90C23CDE90023159B002BC0F292
:1042C0005081BBF10E0F00F34C816A4B03EBCB0323
:1042D000D3E900890A9B002B80F2DA80039B002B34
:1042E00000F3D68040F073820022674B4046494677
:1042F000FCF77EF9DDE90023FCF700FC039E37465E
:10430000002840F04A82029B029A5D1C3123137000
:104310000BF1010B45E2F20705D5D7E90023FCF7C5
:1043200067F9013501237610083775E7022577E72D
:104330005F46039E94E7029A4E4B32441392099AC9
:10434000711E002A48D003EBC103D3E900230020EB
:104350004E49FCF777FA42464B46FBF795FF029D24
:1043600080468946DDE90001FCF7F2FB0646FCF7D2
:10437000D9F802460B46DDE90001FBF785FF303630
:1043800005F8016B42464B46CDE90001FCF7A2FB64
:10439000002865D1DDE9002300203849FBF774FFD0
:1043A00042464B46FCF796FB002840F0BA80139B30
:1043B0009D423FF47EAF0022314B40464946FCF718
:1043C00017F90022804689462D4BDDE90001FCF7F4
:1043D0000FF9CDE90001C5E703EBC10142464B46A9
:1043E000D1E90001FCF704F9CDE91001029DDDE9F6
:1043F0000001FCF7ADFB0646FCF794F830360246A8
:104400000B46DDE90001FBF73FFF05F8016B139B4D
:10441000AB42804689464FF0000225D11B4BDDE9B7
:104420001001FBF733FF02460B4640464946FCF7B6
:104430006FFB002875D1DDE9102300201349FBF73D
:1044400023FF02460B4640464946FCF743FB002843
:104450003FF42FAF15F8013C302B05F1FF3201D0AE
:10446000BB464DE01546F5E7054BFCF7C1F8CDE935
:104470000001BCE7B0550008885500080000F03F77
:104480000000244000001C40000014400000E03FF9
:10449000DDE90067029D42464B4630463946FCF74F
:1044A000D1F9FCF755FB0090FCF73CF842464B462F
:1044B000FCF79EF802460B4630463946FBF7E4FE11
:1044C000009E039F303605F8016B029EAE1BB7427B
:1044D00002460B4638D1FBF7D9FE06460F46024688
:1044E0000B4640464946FCF7F5FAC8B932463B460A
:1044F00040464946FCF7E4FA10B1009BDB070FD4B5
:104500005146204600F0DBFA00230F9A2B700BF186
:1045100001031360219B002B3FF4F8AC1D60F5E410
:104520005F4615F8012C392A05F1FF3306D1029AAE
:104530009A4207D130231370013713461A7801329B
:104540001A708DE71D46ECE70022A44BFCF750F8EB
:104550000022002306460F46FCF7B2FA00289AD044
:10456000CEE7099A002A00F0CD80079A012A00F3CD
:10457000AF80129A002A00F0A78003F23343089E0E
:10458000059D059A1A440592069A01211A4420466F
:10459000069200F034FB0746002D0CDD069B002B35
:1045A00009DDAB42059AA8BF2B46D21A0592069A9E
:1045B000ED1AD31A0693089BF3B1099B002B00F068
:1045C000A580002E10DD39463246204600F0AEFBB5
:1045D000524601460746204600F01AFB51468046E7
:1045E000204600F06CFAC246089B9A1B04D0514644
:1045F000204600F09BFB82460121204600F0FFFA96
:104600000B9B002B064640F383801A46014620464A
:1046100000F08CFB079B012B06467CDD4FF0000869
:10462000336906EB8303186900F09BFAC0F12000A0
:10463000069B184410F01F0000F09680C0F1200384
:10464000042B40F38780059BC0F11C0003440593B5
:10465000069B054403440693059B002B05DD51464C
:104660001A46204600F0B0FB8246069B002B05DD73
:1046700031461A46204600F0A7FB06460E9B002B4B
:1046800074D03146504600F0F0FB00286EDA00236B
:1046900051460A22204600F029FA099B0BF1FF3B04
:1046A0008246002B00F0A881002339460A222046CA
:1046B00000F01CFA049B002B074600F3C880079B00
:1046C000022B40F3C48059E0149BC3F1360356E734
:1046D000039B5E1E089BB342BFBF089B0896F21A5D
:1046E0000B9BB6BF9B189E1B0B93039BB8BF00266A
:1046F000002BB9BF059B039A059D039BBCBF9D1A68
:1047000000233EE7089E059D099F45E7089A6EE74E
:10471000079B012B19DC009BBBB9019BC3F313035F
:104720009BB9019B23F000431B0D1B0583B1059B27
:1047300001330593069B013306934FF001080B9B51
:10474000002B7FF46DAF012072E74FF00008F6E711
:104750009846F4E780D0059A1C331A440592069ACD
:104760001A441D44134676E70346F4E7039B002BE7
:1047700036DC079B022B33DD039B0493049B63B958
:1047800031460522204600F0B1F901460646504662
:1047900000F06BFB00283FF7B6AD0A9B029D6FEA65
:1047A000030B002303933146204600F088F9002FC5
:1047B0003FF4A6AE039B2BB1BB4203D01946204663
:1047C00000F07DF93946204600F079F998E6002698
:1047D0003746E2E7BB46374695E500BF0000244078
:1047E000099B93BB039B0493029D31465046FFF700
:1047F000B7FA00F1300905F8019B029B049AEB1A05
:104800009A4200F3DC80029B012AACBF9B18013363
:1048100098460023039351460122204600F0D4FA23
:104820003146824600F021FB002800F38D8003D141
:1048300019F0010F40F08880454615F8013C302BF7
:1048400005F1FF32AFD11546F7E7039B0493002D26
:1048500005DD39462A46204600F0B6FA0746B8F18B
:10486000000F4CD07968204600F0F5F83A69023222
:104870000546920007F10C010C3000F0E1F801222E
:104880002946204600F0A0FA009BDDF80880039737
:1048900003F001030746059331465046FFF760FADF
:1048A0000399054600F13009504600F0DEFA3A4619
:1048B00000903146204600F0F2FAC368024603BB7E
:1048C00001460690504600F0D0FA069A034611467B
:1048D0002046069300F0F3F8069BA3B9079A92B915
:1048E000059A82B9B9F1390F29D0009B002B01DD5F
:1048F00005F1310908F1010588F8009053E73846C1
:10490000C2E70123E3E7009A002A04DB25D1079AD6
:104910001ABB059A0ABB002BECDD5146012220464A
:1049200000F052FA3146824600F09FFA002803DC7C
:10493000E0D119F0010FDDD0B9F1390FD8D1392309
:1049400088F8003008F10108454615F8013C392B7C
:1049500005F1FF323BD0013340E0002B08F10105A7
:1049600005DDB9F1390FEAD009F10109C4E7029B6D
:10497000049A05F8019CEB1A9342A8463FF44BAF0A
:10498000514600230A22204600F0B0F8039B039909
:10499000BB4282464FF000034FF00A02204604D18A
:1049A00000F0A4F80390074676E700F09FF8002394
:1049B00003900A223946204600F098F8F3E7514662
:1049C00000230A22204600F091F882460DE7029B60
:1049D000934205D1029A0BF1010B31231370E2E6E9
:1049E0001546B2E7094BFFF7AEBA219B002B7FF4C7
:1049F00088AA074BFFF7A7BA049B002B3FF7F4AE3A
:104A0000079B022B7FF7F0AEB8E600BF54550008B5
:104A100078550008044B1B68186A044B002808BF2F
:104A20001846F030704700BF2C0000209000002096
:104A3000024B0146186800F03BBB00BF2C00002071
:104A400010B5431E0A44914200D110BD11F8014B2C
:104A500003F8014FF7E770B5456A04460E463DB9C5
:104A60001020FFF7E5FF6062456085600560C56066
:104A7000656AEB6883B1636ADB6853F82600B8B9EE
:104A8000012101FA06F56A1D9200204600F0B4FAF1
:104A900060B1466085600EE021220421204600F0CE
:104AA000ABFA636AE860DB68002BE4D1002070BDDC
:104AB000026843F8262000230361C36070BD70B50F
:104AC000446A06460D463CB91020FFF7B1FF7062FC
:104AD000446084600460C4603DB1736A6A68DB68E6
:104AE00053F82210296043F8225070BD2DE9F0419F
:104AF0000D691F4606460C4601F1140E0023DEF830
:104B0000000081B202FB01710F0C000C02FB00706F
:104B100089B2013301EB00419D424FEA10474EF844
:104B2000041BECDCD7B1A3689D4212DB6168304600
:104B30000131FFF790FF2269023204F10C01804637
:104B400092000C30FFF77CFF21463046FFF7B7FF9D
:104B5000444604EB850301355F6125612046BDE8CD
:104B6000F081020C12040346B2B90304102013F0C2
:104B70007F4F04BF1B02083013F0704F04BF1B01AE
:104B8000043013F0404F04BF9B000230002B06DBC3
:104B90005B0003D5013070470020E8E72020704714
:104BA000036813F0070201460BD0DA0723D49807F5
:104BB00049BF5B089B0801200B605CBF0B600220B3
:104BC000704798B2A8B91B0C102013F0FF0F04BF58
:104BD0001B0A08301A0704BF1B0904309A0704BFD8
:104BE0009B080230DA0702D45B0806D001300B6064
:104BF00070471046E9E7002070472020704710B545
:104C00000C460121FFF727FF01224461026110BD1C
:104C10002DE9F74F14460A6923699A42B8BF0B463B
:104C20008946BCBFA1461C46D9F81070D4F810A024
:104C3000D9F80830D9F8041007EB0A069E42C8BF1D
:104C40000131FFF708FF00F1140505EB86082B463C
:104C50000022434516D304F1140209F1140102EBBA
:104C60008A0301EB87070193019C944213460CD8F9
:104C7000002E03DD58F8043D002B54D0066103B02C
:104C8000BDE8F08F43F8042BE3E7B3F800A004324B
:104C9000BAF1000F20D0AE4689464FF0000C59F80B
:104CA000044BBEF800B0A3B20AFB03B34FEA144BA7
:104CB000DEF8004063444FEA144C0AFB0BC404EBDB
:104CC00013449BB243EA04434F454FEA144C4EF859
:104CD000043BE4D8CEF800C032F8029CB9F1000FD2
:104CE0001FD02B68AE468C464FF0000ABCF800403F
:104CF000BEF802B009FB04B4A2449BB243EA0A43E3
:104D00004EF8043B5CF8043BBEF800401B0C09FB6A
:104D1000034303EB1A4367454FEA134AE6D8CEF83C
:104D200000300435A0E7013EA2E700002DE9F8437A
:104D3000154612F0030206460F4607D0013A214CF1
:104D4000002354F82220FFF7D1FE0746AD1035D0DE
:104D5000746A3CB91020FFF76BFE70624460846097
:104D60000460C460D6F82480D8F808404CB940F2FA
:104D700071213046FFF743FF0023C8F808000446BE
:104D800003604FF00008EB070AD53946224630464B
:104D9000FFF73EFF394681463046FFF790FE4F460B
:104DA0006D100BD0206838B9224621463046FFF7F7
:104DB0002FFF2060C0F800800446E4E73846BDE8D5
:104DC000F88300BF785600082DE9F0470C464FEAFB
:104DD000621A236949680AEB0309A3680746164665
:104DE00009F10105AB4231DB3846FFF734FE002202
:104DF000804600F11403114652452ADB20692AEA55
:104E0000EA7A04F1140116F01F0203EB8A0301EBA6
:104E1000800E22D0C2F1200C00200E689640304354
:104E200043F8040B51F8040B8E4520FA0CF0F4D82B
:104E3000186008B109F10205013D3846C8F8105064
:104E40002146FFF73CFE4046BDE8F08701315B009C
:104E5000C8E743F822100132CEE7043B51F8042B97
:104E600043F8042F8E45F9D8E6E703690A699B1ACF
:104E700030B50CD19200143014318418114454F818
:104E8000045D51F8042D954203D005D30123184643
:104E900030BDA042F3D3FAE74FF0FF33F7E72DE937
:104EA000F0470D460746114628461446FFF7DDFF3A
:104EB000061E08D131463846FFF7CDFD01230361B8
:104EC0004661BDE8F087A4BF23462C46384661689A
:104ED000A6BF1D4600260126FFF7BDFD2B69C66053
:104EE000266905F1140904F1140202EB860709EBA7
:104EF000830800F114054FF0000C52F804AB59F888
:104F0000044B1CFA8AF1A3B2C91A230CC3EB1A434F
:104F100003EB214389B24FEA234CC84541EA0343DE
:104F2000964645F8043BE8D8BE4505D355F8043D00
:104F30008BB10661BDE8F0875EF8041B1CFA81F3B3
:104F40001A1402EB11429BB243EA02434FEA224C8D
:104F500045F8043BE8E7013EE8E72DE9F7430E4654
:104F6000012159EC108B1546FFF775FDC9F30A5462
:104F70000746C9F3130334BB0193B8F1000F27D0E0
:104F800002A840F8088DFFF70BFE0099F0B1019AD6
:104F9000C0F1200302FA03F30B43C2407B6101928C
:104FA000019BBB61002B14BF022101213961C4B1F7
:104FB000A4F2334404443460C0F13500286038461C
:104FC00003B0BDE8F08343F48013D5E77961E7E7E8
:104FD00001A8FFF7E5FD019B7B61012139612030CC
:104FE000E5E707EB8103A0F2324030601869FFF774
:104FF000B8FDC0EB4110E1E738B502FB01F42146F2
:1050000000F056F8054618B122460021FEF710FAC6
:10501000284638BD38B50546002945D051F8043C2E
:105020000C1F002BB8BFE41800F02CFA1F4A1368BD
:10503000104633B9636014602846BDE8384000F07C
:1050400022BAA3420CD921686218934204BF1A689D
:105050005B68636004BF521822600460ECE713468B
:105060005A680AB1A242FAD919685818A0420BD15D
:1050700020680144581882421960DDD110685268D6
:105080005A6001441960D7E702D90C232B60D3E79B
:10509000206821188A4204BF11685268626004BF08
:1050A000091821605C60C7E738BD00BF2C020020F2
:1050B00070B5CD1C25F0030508350C2D38BF0C2527
:1050C000002D064601DBA94203D90C2333600020E2
:1050D00070BD00F0D7F9234A1468214691B9224CDB
:1050E00023681BB9304600F091F92060294630460C
:1050F00000F08CF9431C26D10C233360304600F0BD
:10510000C2F9E4E70B685B1B1AD40B2B0FD90B60B9
:10511000CD50CC18304600F0B6F904F10B00231D39
:1051200020F00700C31A1BD05A42E25070BD8C42D7
:105130000DBF63684B686360136018BF0C46E9E7F6
:105140000C464968CAE7C41C24F00304A04205D0F9
:10515000211A304600F05AF90130CDD02560D9E748
:1051600070BD00BF2C020020300200202DE9F04766
:105170008E689E4282460C469146984635D88A896A
:1051800012F4906F31D0256809696F1A656902239E
:1051900005EB450595FBF3F508F101033B449D4202
:1051A00038BF1D46530531D52946FFF781FF064616
:1051B00050B90C23CAF80030A38943F04003A381FF
:1051C0004FF0FF30BDE8F0873A462169FFF738FC21
:1051D000A38923F4906343F08003A3812661656172
:1051E0003E44ED1B2660A5604646464528BF464620
:1051F00032464946206800F02BF9A3689B1BA36048
:1052000023681E4426600020BDE8F0872A4600F08F
:105210003BF906460028E1D121695046FFF7FAFE26
:10522000C7E700002DE9F04F9DB0804603938B89BE
:105230001C060D4616460FD50B696BB94021FFF7CA
:1052400037FF2860286128B90C23C8F800304FF0D8
:10525000FF30C5E040236B610023099320238DF8C4
:10526000293030238DF82A304FF0010B37463C4669
:1052700014F8013B002B3CD1B7EB060A0BD0534688
:10528000324629464046FFF771FF013000F0A38007
:10529000099B534409933B78002B00F09C8000232A
:1052A0004FF0FF3204930793059206938DF8533025
:1052B0001A93052221785048FAF792FF671C049B45
:1052C000D8B9D90644BF20228DF853201A0744BF0D
:1052D0002B228DF8532022782A2A16D0079A0021F3
:1052E0000A20274601343B78303B092B51D9C9B1FC
:1052F00011E0252BC0D02746B9E73F4A801A0BFAA8
:1053000000F0184304903C46D3E7039A111D12683D
:105310000391002A01DB079204E0524243F00203AA
:10532000079204933B782E2B0ED17B782A2B07F122
:10533000010132D1039B1A1D1B680392002BB8BFD9
:105340004FF0FF33023705932C4C39780322204667
:10535000FAF746FF38B14023001B03FA00F0049B24
:10536000034304930137397825488DF82810062225
:105370007E1CFAF735FF002835D0224BFBB9039B82
:10538000073323F0070308330393099B4B44099326
:105390006CE700FB02320121A3E7002305931846C6
:1053A0000A240F4601313A78303A092A03D9002BF2
:1053B000CAD00590C8E704FB00200123F1E703AB46
:1053C00000932A46104B04A94046FEF7CFF8B0F1EF
:1053D000FF3F8146D9D1AB895B063FF538AF0998CD
:1053E0001DB0BDE8F08F03AB00932A46064B04A91D
:1053F0004046FEF771FBEAE7845600088A5600082B
:105400008E5600086D3500086D51000838B5064C01
:105410000023054608462360FCF754F8431C02D1DC
:10542000236803B12B6038BDC802002082B001B9E7
:1054300001A942B14BB113780B601278101C18BF50
:10544000012002B070471046FBE76FF00100F8E75B
:10545000884210B501EB020303D8421E99420CD1D9
:1054600010BD9842F9D28118D21AD34200D110BD92
:1054700013F8014D01F8014DF7E711F8014B02F85F
:10548000014FEBE770477047F8B5074614460E46E4
:1054900021B91146BDE8F840FFF70ABE22B9FFF76F
:1054A000B9FD25462846F8BD00F021F884420FD901
:1054B00021463846FFF7FCFD05460028F2D031466C
:1054C0002246FFF7BDFA31463846FFF7A3FDE9E76C
:1054D0003546E7E749B1FF2A85BF8A2303600A7092
:1054E0004FF0FF3098BF012070470846704751F8D1
:1054F000040C0028A0F10400BCBF0B58C018704772
:10550000F8B500BFF8BC08BC9E467047F8B500BFB0
:08551000F8BC08BC9E46704780
:105518000A0D20536963616B6C696B203D20256619
:105528000000000000000000000000000102030469
:10553800060708090000000001020304494E46005E
:10554800696E66004E414E006E616E00300030316B
:1055580032333435363738394142434445460030D2
:105568003132333435363738396162636465660001
:10557800496E66696E697479004E614E00000000DC
:105588000080E03779C34143176E05B5B5B8934637
:10559800F5F93FE9034F384D321D30F94877825A03
:1055A8003CBF737FDD4F1575000000000000F03F21
:1055B80000000000000024400000000000005940E6
:1055C8000000000000408F40000000000088C34039
:1055D80000000000006AF8400000000080842E41AE
:1055E80000000000D01263410000000084D79741FA
:1055F8000000000065CDCD41000000205FA0024200
:10560800000000E876483742000000A2941A6D4274
:10561800000040E59C30A2420000901EC4BCD64267
:1056280000003426F56B0C430080E03779C3414312
:1056380000A0D8855734764300C84E676DC1AB4388
:10564800003D9160E458E143408CB5781DAF1544A6
:1056580050EFE2D6E41A4B4492D54D06CFF0804481
:10566800F64AE1C7022DB544B49DD9794378EA4496
:1056780005000000190000007D000000232D302BDC
:105688002000686C4C00656667454647004300503B
:105698004F534958002E0000202020202020202091
:1056A80020282828282820202020202020202020CA
:1056B80020202020202020208810101010101010EA
:1056C8001010101010101010040404040404040432
:1056D80004041010101010101041414141414101C3
:1056E80001010101010101010101010101010101A2
:1056F80001010110101010101042424242424202B1
:105708000202020202020202020202020202020271
:10571800020202101010102000000000000000001B
:105728000000000000000000000000000000000071
:105738000000000000000000000000000000000061
:105748000000000000000000000000000000000051
:105758000000000000000000000000000000000041
:105768000000000000000000000000000000000031
:105778000000000000000000000000000000000021
:105788000000000000000000000000000000000011
:08579800000000000000000009
:0857A00030B4FF7F010000009E
:0457A800B50100083F
:0457AC00910100085F
:1057B00020000000000000000000000000000000C9
:1057C00000000000000000000000000000000000D9
:1057D0000024F40010000000010000003000002050
:1057E00000000000000000000000000000000000B9
:1057F00000000000000000000000000000000000A9
:105800000000000000000000000000000000000098
:105810000000000000000000000000000000000088
:105820000000000000000000000000000000000078
:105830000000000000000000000000000000000068
:105840004300000000000000000000000000000015
:105850000000000000000000000000000000000048
:1058600043000000000000000000000000000000F5
:105870000000000000000000000000000000000028
:1058800043000000000000000000000000000000D5
:105890000000000000000000000000000000000008
:1058A00043000000000000000000000000000000B5
:1058B00000000000000000000000000000000000E8
:1058C0004300000000000000000000000000000095
:1058D00000000000000000000000000000000000C8
:1058E0004300000000000000000000000000000075
:1058F00000000000000000000000000000000000A8
:105900004300000000000000000000000000000054
:105910000000000000000000000000000000000087
:10592000D55400082D540008000000009F560008C0
:105930009D560008895600088956000889560008B7
:1059400089560008895600088956000889560008BB
:105950008956000889560008FFFFFFFFFFFFFFFF81
:10596000FFFFFFFFFFFF00000100415343494900D3
:105970000000000000000000000000000000000027
:1059800000000000000000000000415343494900AE
:105990000000000000000000000000000000000007
:0C59A000000000000000000000000000FB
:040000050800338933
:00000001FF
