:020000040800F2
:1000000000000220A91D0008CD0D0008D30D000836
:10001000D90D0008DF0D0008E50D00080000000004
:10002000000000000000000000000000EB0D0008D0
:10003000F90D000800000000070E0008150E00086A
:10004000F91D0008F91D0008F91D0008F91D000838
:10005000F91D0008F91D0008F91D0008F91D000828
:10006000F91D0008F91D0008F91D0008F91D000818
:10007000F91D0008F91D0008F91D0008F91D000808
:10008000F91D0008F91D0008F91D0008F91D0008F8
:10009000F91D0008F91D0008F91D0008F91D0008E8
:1000A000F91D0008F91D0008F91D0008F91D0008D8
:1000B000F91D0008F91D0008F91D0008F91D0008C8
:1000C000F91D0008F91D0008F91D0008F91D0008B8
:1000D000F91D0008F91D0008F91D0008F91D0008A8
:1000E000F91D0008F91D0008F91D0008F91D000898
:1000F000F91D0008F91D0008F91D0008F91D000888
:10010000F91D0008F91D0008F91D0008F91D000877
:10011000F91D0008F91D0008F91D0008F91D000867
:10012000F91D0008F91D0008F91D0008F91D000857
:10013000F91D0008F91D0008F91D0008F91D000847
:10014000F91D0008F91D0008F91D0008F91D000837
:10015000F91D0008F91D0008F91D0008F91D000827
:10016000F91D0008F91D0008F91D0008F91D000817
:10017000F91D0008F91D0008F91D00080000000025
:08018000F91D0008F91D00083B
:1001900010B5054C237833B9044B13B10448AFF3C1
:1001A00000800123237010BD7000002000000000BB
:1001B0009C26000808B5034B1BB103490348AFF365
:1001C000008008BD00000000740000209C2600088C
:1001D00001F0FF01102A2BDB10F0070F08D010F8F8
:1001E000013B013A8B422DD010F0070F42B3F6D1FC
:1001F000F0B441EA012141EA014122F007047FF015
:1002000000070023F0E80256083C85EA010586EA6B
:10021000010685FA47F5A3FA87F586FA47F6A5FAA7
:1002200087F68EB9EED1F0BC01F0FF0102F00702B3
:1002300032B110F8013B013A83EA010313B1F8D15E
:100240000020704701387047002D06BF354603383F
:10025000073815F0010F07D1013015F4807F02BF78
:10026000013015F4C03F0130F0BC0138704700BFC9
:1002700053B94AB9002908BF00281CBF4FF0FF310D
:100280004FF0FF3000F07AB9ADF1080C6DE904CE03
:1002900000F006F8DDF804E0DDE9022304B0704761
:1002A0002DE9F0478C460D460446089E002B51D19F
:1002B0008A4217466DD9B2FA82FEBEF1000F0BD00A
:1002C000CEF1200C01FA0EF520FA0CFC02FA0EF722
:1002D0004CEA050C00FA0EF44FEA174A250CBCFB59
:1002E000FAF81FFA87F90AFB18CC45EA0C4508FB17
:1002F00009F3AB420AD9ED1908F1FF3280F02381EE
:10030000AB4240F22081A8F102083D44ED1AA4B2AC
:10031000B5FBFAF00AFB105544EA054400FB09F965
:10032000A14509D9E41900F1FF3380F00A81A14504
:1003300040F2078102383C44A4EB090440EA08403B
:100340000021002E61D024FA0EF400233460736083
:10035000BDE8F0878B4207D9002E54D0002186E8F3
:1003600021000846BDE8F087B3FA83F1002940F088
:100370008E80AB4202D3824200F2FA80841A65EB8F
:1003800003050120AC46002E3FD086E81010BDE8E2
:10039000F08712B90127B7FBF2F7B7FA87FEBEF173
:1003A000000F34D1EB1B3A0C1FFA87FC0121B3FB81
:1003B000F2F8250C02FB183345EA03450CFB08F361
:1003C000AB4207D9ED1908F1FF3002D2AB4200F27F
:1003D000D1808046ED1AA3B2B5FBF2F002FB1055B6
:1003E00043EA05440CFB00FCA44507D9E41900F1DD
:1003F000FF3302D2A44500F2B8801846A4EB0C04E7
:1004000040EA08409DE731463046BDE8F087CEF12E
:10041000200405FA0EF307FA0EF720FA04F83A0C56
:1004200025FA04F448EA0308B4FBF2F14FEA184550
:1004300002FB11441FFA87FC45EA044501FB0CF35B
:10044000AB4200FA0EF409D9ED1901F1FF3080F04A
:100450008A80AB4240F2878002393D44EB1A1FFA92
:1004600088F5B3FBF2F002FB103345EA034500FBCD
:100470000CF3AB4207D9ED1900F1FF386FD2AB4254
:100480006DD902383D44EB1A40EA01418FE7C1F1D2
:10049000200722FA07F88B4005FA01F448EA030323
:1004A00020FA07FE4FEA134CFD404EEA040EB5FB5E
:1004B000FCF94FEA1E440CFB19551FFA83F844EA75
:1004C000054509FB08F4AC4202FA01F200FA01FA10
:1004D00008D9ED1809F1FF3043D2AC4241D9A9F156
:1004E00002091D442D1B1FFA8EFEB5FBFCF00CFB10
:1004F00010554EEA054400FB08F8A04507D9E4185A
:1005000000F1FF3529D2A04527D902381C4440EA22
:100510000940A4EB0804A0FB02894C45C6464D46A1
:1005200015D312D056B1BAEB0E0364EB050404FAEE
:1005300007F7CB401F43CC40376074600021BDE813
:10054000F0871846F8E69046E0E6C245EAD2B8EBF6
:10055000020E69EB03050138E4E72846D7E7404679
:1005600091E78146BEE7014678E702383C4445E71B
:10057000084608E7A8F102083D442BE7704700BF92
:1005800080B483B000AF786002E07B68013B7B60A1
:100590007B68002BF9D100BF0C37BD465DF8047BAA
:1005A000704780B500AF4FF47A70FFF7E9FF00BFE6
:1005B00080BD000080B582B000AF0346FB715F4B89
:1005C0004FF480229A615D4B4FF400329A615B4B8D
:1005D0004FF480129A61594B4FF400129A61574BB5
:1005E0004FF480029A61554B4FF400029A61FFF775
:1005F000D8FF524A514B5B6943F002035361FB79C8
:1006000003F01003002B03D04C4B10229A6103E03F
:100610004A4B4FF480129A61FB7903F02003002BC0
:1006200003D0464B20229A6103E0444B4FF4001262
:100630009A61FB7903F04003002B03D03F4B40222B
:100640009A6103E03D4B4FF480029A6197F90730BD
:10065000002B03DA394B80229A6103E0374B4FF4C9
:1006600000029A61FFF79DFF344B4FF400329A610C
:10067000324B4FF480129A61304B4FF400129A6162
:100680002E4B4FF480029A612C4B4FF400029A617A
:10069000FFF787FF294A294B5B6943F00203536147
:1006A000FB7903F00103002B03D0244B10229A6145
:1006B00003E0224B4FF480129A61FB7903F00203AE
:1006C000002B03D01D4B20229A6103E01B4B4FF4FB
:1006D00000129A61FB7903F00403002B03D0174B3F
:1006E00040229A6103E0154B4FF480029A61FB7936
:1006F00003F00803002B03D0104B80229A6103E023
:100700000E4B4FF400029A61FFF74BFF0B4B4FF477
:1007100000329A61094B4FF480129A61074B4FF4F3
:1007200000129A61054B4FF480029A61034B4FF41B
:1007300000029A6100BF0837BD4680BD000002403C
:1007400080B582B000AF0346FB71604A5F4B5B69C6
:1007500043F0040353615D4B4FF400329A615B4BED
:100760004FF480129A61594B4FF400129A61574B23
:100770004FF480029A61554B4FF400029A61FFF7E3
:1007800010FF524A514B5B6943F002035361FB79FE
:1007900003F01003002B03D04C4B10229A6103E0AE
:1007A0004A4B4FF480129A61FB7903F02003002B2F
:1007B00003D0464B20229A6103E0444B4FF40012D1
:1007C0009A61FB7903F04003002B03D03F4B40229A
:1007D0009A6103E03D4B4FF480029A6197F907302C
:1007E000002B03DA394B80229A6103E0374B4FF438
:1007F00000029A61FFF7D5FE344B4FF400329A6144
:10080000324B4FF480129A61304B4FF400129A61D0
:100810002E4B4FF480029A612C4B4FF400029A61E8
:10082000FFF7BFFE294A294B5B6943F0020353617E
:10083000FB7903F00103002B03D0244B10229A61B3
:1008400003E0224B4FF480129A61FB7903F002031C
:10085000002B03D01D4B20229A6103E01B4B4FF469
:1008600000129A61FB7903F00403002B03D0174BAD
:1008700040229A6103E0154B4FF480029A61FB79A4
:1008800003F00803002B03D0104B80229A6103E091
:100890000E4B4FF400029A61FFF783FE0B4B4FF4AF
:1008A00000329A61094B4FF480129A61074B4FF462
:1008B00000129A61054B4FF480029A61034B4FF48A
:1008C00000029A6100BF0837BD4680BD00000240AB
:1008D00080B582B000AF786008E0FFF762FE7B6809
:1008E0005A1C7A601B781846FFF72AFF7B681B7832
:1008F000002BF2D1FFF755FE00BF0837BD4680BD83
:1009000080B582B000AF0346FB710B46BB71134646
:100910007B71FA2000F034FB0220FFF74BFE3220FF
:1009200000F02EFBFA79BB791343DAB27B791343DB
:10093000DBB243F02003DBB21846FFF73BFE322068
:1009400000F01EFB0620FFF735FE322000F018FBFA
:100950000E20FFF72FFE322000F012FB0C20FFF7D5
:1009600029FE322000F00CFB0120FFF723FE64205B
:1009700000F006FB00BF0837BD4680BD80B582B0E1
:1009800000AF03460A46FB711346BB71FB79012B8E
:1009900006D1BB797F33DBB21846FFF70BFE08E0C8
:1009A000FB79022B05D1BB79413BDBB21846FFF73F
:1009B00001FE00BF0837BD4680BD80B582B000AFE4
:1009C00003463A60FB710B46BB71BA79FB7911465D
:1009D0001846FFF7D3FF3868FFF77AFF00BF0837E4
:1009E000BD4680BD80B400AF144A144BDB6823F0D1
:1009F0008073D360114A114BDB6843F08073D3607E
:100A00000F4A0F4B1B6823F0010313600C4A0C4B79
:100A10001B6843F001031360094B00225A6000BFBA
:100A200000BF00BF064B5B68002B01D0002300E035
:100A300001231846BD465DF8047B7047F0ED00E0E9
:100A4000001000E080B584B000AF78600C4B5B68AC
:100A5000FB6001F09DF902460A4BA3FB02239B0CAD
:100A60007A6802FB03F37B6000BF054B5A68FB68A2
:100A7000D21A7B689A42F8D300BF1037BD4680BDBA
:100A8000001000E083DE1B4380B582B000AF00237E
:100A90007B60002210211A4800F02AFD0A20FFF78F
:100AA000D1FF01221021164800F022FD0A20FFF795
:100AB000C9FF00221021124800F01AFD0A20FFF79A
:100AC000C1FF00BF08210E4800F0FAFC0346002BCE
:100AD000F8D005E07B6801337B600120FFF7B2FFAF
:100AE0000821074800F0ECFC0346002BF2D132202D
:100AF00000F046FA7B6818460837BD4680BD00BF47
:100B00000004024080B500AF00F0C8F900F032F8F0
:100B100000F09AF8FFF766FF082200210020FFF797
:100B2000EFFEFFF7B1FF02460D4B1A600C4B1B683E
:100B30000C4AA2FB03235B099AB20B4B1A80C82014
:100B400000F01EFA084B1B881A460849084801F0B5
:100B500087F9074A01210120FFF72FFFE1E700BFD6
:100B6000BC00002009CB3D8D98000020B426000871
:100B70009C00002080B594B000AF07F12003302224
:100B80000021184601F064F907F10C0300221A60F5
:100B90005A609A60DA601A610023BB60284A284BC9
:100BA0001B6C43F080531364254B1B6C03F0805384
:100BB000BB60BB6800237B60224A224B1B6843F466
:100BC000804313601F4B1B6803F480437B607B688A
:100BD00001233B624FF480337B620223BB634FF4FB
:100BE0008003FB6304233B64A8237B640223BB6470
:100BF0000423FB6407F12003184600F093FC03462E
:100C0000002B01D000F0B6F80F23FB6002233B61FC
:100C100000237B614FF4A053BB614FF48053FB6111
:100C200007F10C030521184600F0F4FE0346002BE3
:100C300001D000F09FF800BF5037BD4680BD00BF17
:100C4000003802400070004080B58AB000AF07F164
:100C5000140300221A605A609A60DA601A61002355
:100C60003B61404A3F4B1B6B43F0800313633D4B9A
:100C70001B6B03F080033B613B690023FB60394A37
:100C8000384B1B6B43F001031363364B1B6B03F0B4
:100C90000103FB60FB680023BB60324A314B1B6BD6
:100CA00043F0080313632F4B1B6B03F00803BB6077
:100CB000BB6800237B602B4A2A4B1B6B43F002036B
:100CC0001363284B1B6B03F002037B607B680022DD
:100CD000F621254800F00CFC00224FF47041234817
:100CE00000F006FC00221021214800F001FCF62350
:100CF0007B610123BB610023FB6100233B6207F1A1
:100D000014031946184800F041FA4FF470437B6110
:100D10000123BB610023FB6100233B6207F1140345
:100D20001946124800F032FA08237B610023BB61A8
:100D30000023FB6107F1140319460D4800F026FA61
:100D400010237B610123BB610023FB6100233B6215
:100D500007F114031946064800F018FA00BF2837B7
:100D6000BD4680BD0038024000000240000C024039
:100D70000004024080B400AF72B6FEE780B483B0D6
:100D800000AF00237B60104A0F4B5B6C43F4804341
:100D900053640D4B5B6C03F480437B607B680023E2
:100DA0003B60094A084B1B6C43F080531364064BAD
:100DB0001B6C03F080533B603B6800BF0C37BD46A3
:100DC0005DF8047B704700BF0038024080B400AF7C
:100DD000FEE780B400AFFEE780B400AFFEE780B46A
:100DE00000AFFEE780B400AFFEE780B400AF00BF05
:100DF000BD465DF8047B704780B400AF00BFBD46C0
:100E00005DF8047B704780B400AF00BFBD465DF85D
:100E1000047B704780B500AF00F092F800BF80BD42
:100E200080B584B000AF7860114B1B68002B02D1F5
:100E30000F4B104A1A600E4B1B68FB600C4B1A6874
:100E40007B6813446A46934207D900F0D7FF0246F5
:100E50000C2313604FF0FF3306E0054B1A687B68E4
:100E60001344034A1360FB6818461037BD4680BD23
:100E70008C000020C800002080B400AF064A064B5A
:100E8000D3F8883043F47003C2F8883000BFBD4601
:100E90005DF8047B704700BF00ED00E080B500AF57
:100EA0000E4A0E4B1B6843F4007313600B4A0B4B46
:100EB0001B6843F480631360084A084B1B6843F4C3
:100EC00080731360032000F02DF9002000F008F873
:100ED000FFF754FF0023184680BD00BF003C0240CE
:100EE00080B582B000AF7860124B1A68124B1B7845
:100EF00019464FF47A73B3FBF1F3B2FBF3F31846E0
:100F000000F037F90346002B01D001230EE07B6887
:100F10000F2B0AD8002279684FF0FF3000F00DF94E
:100F2000064A7B681360002300E001231846083757
:100F3000BD4680BD00000020080000200400002005
:100F400080B400AF064B1B781A46064B1B6813444F
:100F5000044A136000BFBD465DF8047B704700BFC4
:100F600008000020C000002080B400AF034B1B68C5
:100F70001846BD465DF8047B704700BFC0000020E6
:100F800080B584B000AF7860FFF7EEFFB8607B6893
:100F9000FB60FB68B3F1FF3F05D0094B1B781A4695
:100FA000FB681344FB6000BFFFF7DEFF0246BB682F
:100FB000D21AFB689A42F7D300BF1037BD4680BDF6
:100FC0000800002080B485B000AF78607B6803F033
:100FD0000703FB600C4BDB68BB60BA684FF6FF038E
:100FE0001340BB60FB681A02BB68134343F0BF6346
:100FF00043F40033BB60044ABB68D36000BF1437BE
:10100000BD465DF8047B704700ED00E080B400AFA2
:10101000044BDB681B0A03F007031846BD465DF866
:10102000047B704700ED00E080B483B000AF03465E
:101030003960FB7197F90730002B0ADB0D4997F9EE
:1010400007303A68D2B21201D2B20B4483F80023BF
:101050000AE00949FB7903F00F03043B3A68D2B276
:101060001201D2B20B441A7600BF0C37BD465DF8B0
:10107000047B704700E100E000ED00E080B489B03F
:1010800000AFF860B9607A60FB6803F00703FB61AA
:10109000FB69C3F10703042B28BF0423BB61FB6971
:1010A0000433062B02D9FB69033B00E000237B617C
:1010B0000122BB6902FA03F35A1EBB681A407B691E
:1010C0009A4001217B6901FA03F3591E7B680B40AA
:1010D000134318462437BD465DF8047B7047000073
:1010E00080B582B000AF78607B68013BB3F1807F50
:1010F00001D301230FE00A4A7B68013B53600F21B3
:101100004FF0FF30FFF790FF054B00229A60044B31
:1011100007221A60002318460837BD4680BD00BF6D
:1011200010E000E080B582B000AF78607868FFF72B
:1011300049FF00BF0837BD4680BD80B586B000AF0F
:101140000346B9607A60FB7300237B61FFF75EFFA3
:1011500078617A68B9687869FFF790FF024697F975
:101160000F3011461846FFF75FFF00BF1837BD4626
:1011700080BD80B582B000AF78607868FFF7B0FFBF
:10118000034618460837BD4680BD000080B489B0CC
:1011900000AF7860396000237B6100233B6100234E
:1011A000BB610023FB616BE10122FB6902FA03F3DF
:1011B0007B613B681A687B6913403B613A697B69D4
:1011C0009A4240F05A813B685B6803F00303012BAD
:1011D00005D03B685B6803F00303022B30D17B68CA
:1011E0009B68BB61FB695B00032202FA03F3DB43EC
:1011F000BA691340BB613B68DA68FB695B0002FABD
:1012000003F3BA691343BB617B68BA699A607B6870
:101210005B68BB610122FB6902FA03F3DB43BA6935
:101220001340BB613B685B681B0903F00102FB696B
:1012300002FA03F3BA691343BB617B68BA695A6067
:101240003B685B6803F00303032B17D07B68DB6804
:10125000BB61FB695B00032202FA03F3DB43BA695B
:101260001340BB613B689A68FB695B0002FA03F3B9
:10127000BA691343BB617B68BA69DA603B685B6833
:1012800003F00303022B23D1FB69DA087B680832E1
:1012900053F82230BB61FB6903F007039B000F2268
:1012A00002FA03F3DB43BA691340BB613B681A6976
:1012B000FB6903F007039B0002FA03F3BA691343C7
:1012C000BB61FB69DA087B680832B96943F8221010
:1012D0007B681B68BB61FB695B00032202FA03F3B6
:1012E000DB43BA691340BB613B685B6803F00302F0
:1012F000FB695B0002FA03F3BA691343BB617B68C5
:10130000BA691A603B685B6803F08053002B00F0F9
:10131000B4800023FB605F4A5E4B5B6C43F4804308
:1013200053645C4B5B6C03F48043FB60FB685A4A7C
:10133000FB699B08023352F82330BB61FB6903F061
:1013400003039B000F2202FA03F3DB43BA69134045
:10135000BB617B68514A93422BD07B68504A9342D1
:1013600025D07B684F4A93421FD07B684E4A9342F8
:1013700019D07B684D4A934213D07B684C4A934204
:101380000DD07B684B4A934207D07B684A4A934210
:1013900001D107230EE008230CE006230AE0052311
:1013A00008E0042306E0032304E0022302E0012313
:1013B00000E00023FA6902F0030292009340BA6948
:1013C0001343BB613449FB699B080233BA6941F896
:1013D00023203A4B1B68BB613B69DB43BA6913406E
:1013E000BB613B685B6803F48033002B03D0BA69B0
:1013F0003B691343BB61314ABB6913602F4B5B6888
:10140000BB613B69DB43BA691340BB613B685B6806
:1014100003F40033002B03D0BA693B691343BB616B
:10142000264ABB695360254B9B68BB613B69DB4324
:10143000BA691340BB613B685B6803F48013002BFF
:1014400003D0BA693B691343BB611C4ABB69936013
:101450001A4BDB68BB613B69DB43BA691340BB6174
:101460003B685B6803F40013002B03D0BA693B6947
:101470001343BB61114ABB69D360FB690133FB6154
:10148000FB690F2B7FF690AE00BF2437BD465DF899
:10149000047B7047003802400038014000000240E1
:1014A0000004024000080240000C0240001002400C
:1014B0000014024000180240001C0240003C0140A1
:1014C00080B485B000AF78600B467B807B681A697A
:1014D0007B881340002B02D00123FB7301E0002323
:1014E000FB73FB7B18461437BD465DF8047B7047E1
:1014F00080B483B000AF78600B467B8013467B706E
:101500007B78002B03D07A887B689A6103E07B8824
:101510001A047B689A6100BF0C37BD465DF8047BF6
:101520007047000080B586B000AF78607B68002B04
:1015300001D1012364E27B681B6803F00103002BE7
:1015400075D0A34B9B6803F00C03042B0CD0A04B6D
:101550009B6803F00C03082B12D19D4B5B6803F4CE
:101560008003B3F5800F0BD1994B1B6803F4003354
:10157000002B5BD07B685B68002B57D101233FE2D7
:101580007B685B68B3F5803F06D1914A904B1B683E
:1015900043F4803313601DE07B685B68B3F5A02FD4
:1015A0000CD18B4A8A4B1B6843F480231360884A12
:1015B000874B1B6843F4803313600BE0844A844BF1
:1015C0001B6823F480331360814A814B1B6823F42A
:1015D000802313607B685B68002B13D0FFF7C4FC8B
:1015E000386108E0FFF7C0FC02463B69D31A642B60
:1015F00001D9032304E2764B1B6803F40033002B6C
:10160000F0D014E0FFF7B0FC386108E0FFF7ACFC65
:1016100002463B69D31A642B01D90323F0E16C4BDA
:101620001B6803F40033002BF0D100E000BF7B689F
:101630001B6803F00203002B63D0654B9B6803F02B
:101640000C03002B0BD0624B9B6803F00C03082BA0
:101650001CD15F4B5B6803F48003002B16D15C4BFD
:101660001B6803F00203002B05D07B68DB68012BAD
:1016700001D00123C4E15649554B1B6823F0F80201
:101680007B681B69DB0013430B603AE07B68DB6817
:10169000002B20D04F4B01221A60FFF765FC386108
:1016A00008E0FFF761FC02463B69D31A022B01D91F
:1016B0000323A5E1464B1B6803F00203002BF0D087
:1016C0004349434B1B6823F0F8027B681B69DB002E
:1016D00013430B6015E03F4B00221A60FFF744FCF8
:1016E000386108E0FFF740FC02463B69D31A022B41
:1016F00001D9032384E1364B1B6803F00203002B5E
:10170000F0D17B681B6803F00803002B30D07B68A6
:101710005B69002B16D0304B01221A60FFF724FCC6
:10172000386108E0FFF720FC02463B69D31A022B20
:1017300001D9032364E1264B5B6F03F00203002B06
:10174000F0D015E0244B00221A60FFF70DFC386141
:1017500008E0FFF709FC02463B69D31A022B01D9C6
:1017600003234DE11A4B5B6F03F00203002BF0D112
:101770007B681B6803F00403002B00F0A0800023AB
:10178000FB75134B1B6C03F08053002B0FD1002310
:10179000BB600F4A0E4B1B6C43F0805313640C4B21
:1017A0001B6C03F08053BB60BB680123FB750B4BC4
:1017B0001B6803F48073002B21D1084A074B1B6878
:1017C00043F480731360FFF7CFFB386111E000BF73
:1017D0000038024000004742800E4742007000403F
:1017E000FFF7C2FB02463B69D31A022B01D9032340
:1017F00006E1854B1B6803F48073002BF0D07B68F7
:101800009B68012B06D1814A804B1B6F43F001037B
:1018100013671CE07B689B68052B0CD17B4A7B4BD4
:101820001B6F43F004031367784A784B1B6F43F038
:10183000010313670BE0754A744B1B6F23F0010320
:101840001367724A714B1B6F23F0040313677B68A5
:101850009B68002B15D0FFF787FB38610AE0FFF784
:1018600083FB02463B69D31A41F28832934201D985
:101870000323C5E0654B1B6F03F00203002BEED082
:1018800014E0FFF771FB38610AE0FFF76DFB0246D9
:101890003B69D31A41F28832934201D90323AFE066
:1018A0005A4B1B6F03F00203002BEED1FB7D012B83
:1018B00005D1564A554B1B6C23F0805313647B684B
:1018C0009B69002B00F09B80504B9B6803F00C033E
:1018D000082B5CD07B689B69022B41D14C4B0022CA
:1018E0001A60FFF741FB386108E0FFF73DFB024655
:1018F0003B69D31A022B01D9032381E0434B1B68B8
:1019000003F00073002BF0D140497B68DA697B68F3
:101910001B6A1A437B685B6A9B011A437B689B6A5C
:101920005B08013B1B041A437B68DB6A1B061343FD
:101930004B60374B01221A60FFF716FB386108E055
:10194000FFF712FB02463B69D31A022B01D903238E
:1019500056E02E4B1B6803F00073002BF0D04EE0D6
:101960002B4B00221A60FFF7FFFA386108E0FFF7FF
:10197000FBFA02463B69D31A022B01D903233FE04D
:10198000224B1B6803F00073002BF0D137E07B681B
:101990009B69012B01D1012332E01C4B5B68FB608A
:1019A0007B689B69012B28D0FB6803F480027B686D
:1019B000DB699A4221D1FB6803F03F027B681B6A16
:1019C0009A421AD1FA6847F6C07313407A68526A8D
:1019D0009201934211D1FB6803F440327B689B6A09
:1019E0005B08013B1B049A4207D1FB6803F070625D
:1019F0007B68DB6A1B069A4201D0012300E00023CA
:101A000018461837BD4680BD0070004000380240BF
:101A10006000474280B584B000AF786039607B6871
:101A2000002B01D10123CCE0684B1B6803F00702B7
:101A30003B689A420CD2654B3A68D2B21A70634B3B
:101A40001B6803F007023B689A4201D00123B8E00B
:101A50007B681B6803F00203002B20D07B681B68A7
:101A600003F00403002B05D0594A594B9B6843F4FB
:101A7000E05393607B681B6803F00803002B05D0DC
:101A8000534A534B9B6843F4604393605049504B17
:101A90009B6823F0F0027B689B6813438B607B6834
:101AA0001B6803F00103002B44D07B685B68012BAB
:101AB00007D1474B1B6803F40033002B19D10123D6
:101AC0007FE07B685B68022B03D07B685B68032B3D
:101AD00007D13F4B1B6803F00073002B09D1012392
:101AE0006FE03B4B1B6803F00203002B01D1012385
:101AF00067E03749364B9B6823F003027B685B68DD
:101B000013438B60FFF730FAF8600AE0FFF72CFA16
:101B10000246FB68D31A41F28832934201D903236B
:101B20004FE02B4B9B6803F00C027B685B689B00CB
:101B30009A42EBD1254B1B6803F007023B689A429F
:101B40000CD9224B3A68D2B21A70204B1B6803F0B2
:101B500007023B689A4201D0012332E07B681B6890
:101B600003F00403002B08D01949194B9B6823F498
:101B7000E0527B68DB6813438B607B681B6803F073
:101B80000803002B09D01249114B9B6823F46042D3
:101B90007B681B69DB0013438B6000F021F8014672
:101BA0000B4B9B681B0903F00F030A4AD35C21FA15
:101BB00003F3094A1360094B1B681846FFF790F9B5
:101BC000002318461037BD4680BD00BF003C0240D0
:101BD00000380240BC26000800000020040000205D
:101BE0002DE9F04F8FB000AF0023FB6200237B6331
:101BF0000023BB6200233B63624B9B6803F00C0332
:101C0000042B07D0082B08D0002B40F0B2805E4B8D
:101C10003B63B1E05D4B3B63AEE05A4B5B6803F066
:101C20003F03FB62574B5B6803F48003002B4ED0ED
:101C3000544B5B689B094FF0000440F2FF114FF0DA
:101C4000000201EA030102EA04020B4614466001A5
:101C50007862786A40EAD36078625B013B62D7E9D8
:101C600008345B1A64EB02044FEA841949EA936969
:101C70004FEA8318B8EB030869EB04094FEAC9037C
:101C8000FB61FB6943EA5873FB614FEAC803BB6120
:101C9000D7E9068918EB010849EB02094FEA492305
:101CA0007B617B6943EAD8537B614FEA48233B6100
:101CB000D7E9048940464946FB6A4FF000041A46BA
:101CC0002346FEF7D5FA03460C467B6343E02D4BD3
:101CD0005B689B094FF0000440F2FF114FF00002D7
:101CE00001EA030102EA04020B4614466001F860AF
:101CF000F86840EAD360F8605B01BB60D7E9023462
:101D00005B1A64EB0204A60146EA93669D01ED1A94
:101D100066EB0406F3007B607B6843EA55737B60E7
:101D2000EB003B6097E860006D1846EB02064FEA57
:101D3000862B4BEA955B4FEA852A55465E46284638
:101D40003146FB6A4FF000041A462346FEF790FA2C
:101D500003460C467B630B4B5B681B0C03F00303D1
:101D600001335B00BB627A6BBB6AB2FBF3F33B638C
:101D700002E0054B3B6300BF3B6B18463C37BD465A
:101D8000BDE8F08F003802400024F40000127A0011
:101D900080B400AF034B1B681846BD465DF8047B5A
:101DA000704700BF00000020DFF834D00D480E4916
:101DB0000E4A002302E0D458C4500433C4188C42A5
:101DC000F9D30B4A0B4C002301E013600432A2420A
:101DD000FBD3FFF751F800F017F8FEF793FE7047BA
:101DE00000000220000000207000002010270008E2
:101DF00070000020C8000020FEE70000014B1868BA
:101E0000704700BF0C00002070B50D4E0D4CA41B98
:101E1000A4100025A54209D10B4E0C4C00F03EFC4D
:101E2000A41BA4100025A54205D170BD56F825308D
:101E300098470135EEE756F8253098470135F2E727
:101E40000827000808270008082700080C270008B2
:101E500002440346934200D1704703F8011BF9E79F
:101E60000EB400B59CB04FF402711DABADF8141068
:101E7000029006906FF000410A48049107914FF6D6
:101E8000FF7153F8042BADF816100068019302A9F6
:101E900000F066F8029B00221A701CB05DF804EB9B
:101EA00003B070470C0000202DE9F0478E689E4279
:101EB00082460C469146984635D88A8912F4906F2E
:101EC00031D0256809696F1A6569022305EB45055C
:101ED00095FBF3F508F101033B449D4238BF1D46D5
:101EE000530531D5294600F039FB064650B90C237D
:101EF000CAF80030A38943F04003A3814FF0FF30BC
:101F0000BDE8F0873A46216900F0B4FAA38923F4CA
:101F1000906343F08003A381266165613E44ED1B1D
:101F20002660A5604646464528BF46463246494695
:101F3000206800F0AAFAA3689B1BA36023681E44D4
:101F400026600020BDE8F0872A4600F065FB0646C3
:101F50000028E1D12169504600F0B2FAC7E700003D
:101F60002DE9F04F9DB0804603938B891C060D46EA
:101F700016460FD50B696BB9402100F0EFFA2860C7
:101F8000286128B90C23C8F800304FF0FF30C5E0B5
:101F900040236B610023099320238DF829303023DF
:101FA0008DF82A304FF0010B37463C4614F8013BC0
:101FB000002B3CD1B7EB060A0BD0534632462946DC
:101FC0004046FFF771FF013000F0A380099B5344A6
:101FD00009933B78002B00F09C8000234FF0FF32E8
:101FE00004930793059206938DF853301A930522B4
:101FF00021785048FEF7ECF8671C049BD8B9D90645
:1020000044BF20228DF853201A0744BF2B228DF89D
:10201000532022782A2A16D0079A00210A20274620
:1020200001343B78303B092B51D9C9B111E0252B44
:10203000C0D02746B9E73F4A801A0BFA00F0184390
:1020400004903C46D3E7039A111D12680391002ABD
:1020500001DB079204E0524243F00203079204932B
:102060003B782E2B0ED17B782A2B07F1010132D140
:10207000039B1A1D1B680392002BB8BF4FF0FF3360
:10208000023705932C4C397803222046FEF7A0F83E
:1020900038B14023001B03FA00F0049B0343049370
:1020A0000137397825488DF8281006227E1CFEF766
:1020B0008FF8002835D0224BFBB9039B073323F060
:1020C000070308330393099B4B4409936CE700FB18
:1020D00002320121A3E70023059318460A240F4684
:1020E00001313A78303A092A03D9002BCAD0059039
:1020F000C8E704FB00200123F1E703AB00932A4665
:10210000104B04A94046AFF30080B0F1FF3F814679
:10211000D9D1AB895B063FF538AF09981DB0BDE852
:10212000F08F03AB00932A46064B04A9404600F00B
:1021300081F8EAE7CC260008D2260008D626000857
:1021400000000000A91E00082DE9F04791461F4637
:102150008A680B69DDF820809342B8BF1346C9F83E
:10216000003091F8432006460C4612B10133C9F8FD
:1021700000302368990642BFD9F800300233C9F80D
:102180000030256815F0060507D104F1190AE36847
:10219000D9F800209B1A9D4229DB94F8433022682D
:1021A000003318BF012392062ED404F143023946AE
:1021B0003046C047013021D02368E568D9F80020B7
:1021C00003F00603042B08BFAD1AA36822690CBFF5
:1021D00025EAE57500259342C4BF9B1AED184FF020
:1021E00000091A344D451BD10020BDE8F0870123BA
:1021F000524639463046C047013003D14FF0FF30D8
:10220000BDE8F0870135C2E7E1185A1C302081F89B
:102210004300224494F8451082F843100233C4E787
:102220000123224639463046C0470130E6D009F145
:102230000109D7E72DE9F04317460A7E85B06E2ADB
:10224000984606460C460C9B01F1430E00F0BC80FC
:102250001AD8632A2ED00AD8002A00F0C880582A3B
:1022600000F08A8004F1420584F842202AE0642AC2
:1022700001D0692AF6D121681A6811F0800F23D0A5
:10228000111D1960136827E0732A00F0B48008D884
:102290006F2A2AD0702AE5D10A6842F020020A602B
:1022A00003E0752A21D0782ADCD1782284F84520F1
:1022B0006E4964E01A6801F14205111D1960136846
:1022C00084F842300123A3E011F0400F02F1040131
:1022D0001960D7D0B2F90030002B03DA2D225B420F
:1022E00084F8432062490A2217E02068196810F038
:1022F000800F03D0081D18600B6806E010F0400F37
:1023000001F104001860F7D00B8859496F2A14BFF7
:102310000A220822002084F843006568A560002D89
:10232000C0F29C80206820F004002060002B3FD188
:10233000002D40F095807546082A0BD12368DA07F6
:1023400008D5236962689A42DEBF302305F8013C54
:1023500005F1FF35AEEB05032361CDF800803B4668
:1023600003AA21463046FFF7EFFE013055D14FF06A
:10237000FF3005B0BDE8F08381F845203C49226874
:10238000186812F0800F00F104051D6001D0036889
:1023900002E05506FBD50388D00744BF42F0200277
:1023A00022601BB9226822F0200222601022B1E7CD
:1023B0007546B3FBF2F002FB1033CB5C05F8013D30
:1023C00003460028F5D1B7E708681A68496910F094
:1023D000800F04D0101D18601368196007E010F01A
:1023E000400F02F1040018601368F6D01980002332
:1023F00023617546B1E71A68111D19601568626896
:1024000000212846FDF7E4FE08B1401B60606368C8
:102410002361002384F843309FE723692A46394625
:102420003046C0470130A2D023689B0707D500255E
:1024300004F11909E368039A9B1A9D4205DBE068E1
:10244000039B9842B8BF184693E701234A46394692
:102450003046C04701308AD00135EBE7002BA7D1C9
:102460000B7884F8423004F1420565E7EE26000857
:10247000DD26000810B5431E0A44914200D110BD6C
:1024800011F8014B03F8014FF7E7884210B501EB53
:10249000020303D8421E99420CD110BD9842F9D2D2
:1024A0008118D21AD34200D110BD13F8014D01F8A2
:1024B000014DF7E711F8014B02F8014FEBE700007F
:1024C00038B50546002945D051F8043C0C1F002BB7
:1024D000B8BFE41800F0D6F81F4A1368104633B9A5
:1024E000636014602846BDE8384000F0CCB8A342D1
:1024F0000CD921686218934204BF1A685B68636054
:1025000004BF521822600460ECE713465A680AB10F
:10251000A242FAD919685818A0420BD12068014488
:10252000581882421960DDD1106852685A6001441F
:102530001960D7E702D90C232B60D3E72068211854
:102540008A4204BF11685268626004BF09182160A2
:102550005C60C7E738BD00BF9000002070B5CD1C9F
:1025600025F0030508350C2D38BF0C25002D064637
:1025700001DBA94203D90C233360002070BD00F0B9
:1025800081F8234A1468214691B9224C23681BB96B
:10259000304600F067F820602946304600F062F8C7
:1025A000431C26D10C233360304600F06CF8E4E77E
:1025B0000B685B1B1AD40B2B0FD90B60CD50CC18BA
:1025C000304600F060F804F10B00231D20F00700F6
:1025D000C31A1BD05A42E25070BD8C420DBF6368D3
:1025E0004B686360136018BF0C46E9E70C46496806
:1025F000CAE7C41C24F00304A04205D0211A3046C7
:1026000000F030F80130CDD02560D9E770BD00BFB3
:102610009000002094000020F8B5074614460E46AE
:1026200021B91146BDE8F840FFF798BF22B9FFF77E
:1026300047FF25462846F8BD00F026F884420FD90A
:1026400021463846FFF78AFF05460028F2D031467A
:102650002246FFF70FFF31463846FFF731FFE9E723
:102660003546E7E738B5064C0023054608462360A3
:10267000FEF7D6FB431C02D1236803B12B6038BDA3
:10268000C40000207047704751F8040C0028A0F1E6
:102690000400BCBF0B58C01870470000F8B500BF5D
:1026A000F8BC08BC9E467047F8B500BFF8BC08BC33
:0426B0009E4670478B
:1026B400256420636D00000000000000000000009D
:1026C4000102030406070809232D302B2000686C3F
:1026D4004C00656667454647003031323334353641
:1026E400373839414243444546003031323334357A
:0C26F400363738396162636465660000A7
:08270000A0DBFF7F01000000D7
:04270800B50100080F
:04270C00910100082F
:102710000024F40010000000010000001000002060
:1027200000000000000000000000000000000000A9
:102730000000000000000000000000000000000099
:102740000000000000000000000000000000000089
:102750000000000000000000000000000000000079
:102760000000000000000000000000000000000069
:102770000000000000000000000000000000000059
:0400000508001DA929
:00000001FF
